{
  "_format": "hh-sol-artifact-1",
  "contractName": "HuntedAccount",
  "sourceName": "contracts/HuntedAccount.sol",
  "abi": [
    {
      "inputs": [
        {
          "internalType": "address",
          "name": "lensHub",
          "type": "address"
        },
        {
          "internalType": "address",
          "name": "mockProfileCreationProxy",
          "type": "address"
        },
        {
          "internalType": "address",
          "name": "feeFollowModule",
          "type": "address"
        },
        {
          "internalType": "address",
          "name": "twitterVerifier",
          "type": "address"
        },
        {
          "internalType": "string",
          "name": "_twitterProfile",
          "type": "string"
        },
        {
          "internalType": "string",
          "name": "_challenge",
          "type": "string"
        },
        {
          "internalType": "uint8",
          "name": "_royaltyFee",
          "type": "uint8"
        }
      ],
      "stateMutability": "nonpayable",
      "type": "constructor"
    },
    {
      "anonymous": false,
      "inputs": [
        {
          "indexed": true,
          "internalType": "bytes32",
          "name": "role",
          "type": "bytes32"
        },
        {
          "indexed": true,
          "internalType": "bytes32",
          "name": "previousAdminRole",
          "type": "bytes32"
        },
        {
          "indexed": true,
          "internalType": "bytes32",
          "name": "newAdminRole",
          "type": "bytes32"
        }
      ],
      "name": "RoleAdminChanged",
      "type": "event"
    },
    {
      "anonymous": false,
      "inputs": [
        {
          "indexed": true,
          "internalType": "bytes32",
          "name": "role",
          "type": "bytes32"
        },
        {
          "indexed": true,
          "internalType": "address",
          "name": "account",
          "type": "address"
        },
        {
          "indexed": true,
          "internalType": "address",
          "name": "sender",
          "type": "address"
        }
      ],
      "name": "RoleGranted",
      "type": "event"
    },
    {
      "anonymous": false,
      "inputs": [
        {
          "indexed": true,
          "internalType": "bytes32",
          "name": "role",
          "type": "bytes32"
        },
        {
          "indexed": true,
          "internalType": "address",
          "name": "account",
          "type": "address"
        },
        {
          "indexed": true,
          "internalType": "address",
          "name": "sender",
          "type": "address"
        }
      ],
      "name": "RoleRevoked",
      "type": "event"
    },
    {
      "anonymous": false,
      "inputs": [
        {
          "indexed": false,
          "internalType": "address",
          "name": "_withdrawer",
          "type": "address"
        },
        {
          "indexed": false,
          "internalType": "uint256",
          "name": "_withdrawnAmount",
          "type": "uint256"
        },
        {
          "indexed": false,
          "internalType": "uint256",
          "name": "_allTimeWithdrawnAmount",
          "type": "uint256"
        }
      ],
      "name": "RoyaltiesWithdrawn",
      "type": "event"
    },
    {
      "anonymous": false,
      "inputs": [
        {
          "indexed": false,
          "internalType": "address",
          "name": "_hunter",
          "type": "address"
        },
        {
          "indexed": false,
          "internalType": "uint256",
          "name": "_hunterAmountStaked",
          "type": "uint256"
        },
        {
          "indexed": false,
          "internalType": "uint256",
          "name": "_hunterTotalAmountStaked",
          "type": "uint256"
        },
        {
          "indexed": false,
          "internalType": "uint256",
          "name": "_totalAmountStaked",
          "type": "uint256"
        }
      ],
      "name": "Stake",
      "type": "event"
    },
    {
      "inputs": [],
      "name": "DEFAULT_ADMIN_ROLE",
      "outputs": [
        {
          "internalType": "bytes32",
          "name": "",
          "type": "bytes32"
        }
      ],
      "stateMutability": "view",
      "type": "function"
    },
    {
      "inputs": [],
      "name": "HUNTER_ROLE",
      "outputs": [
        {
          "internalType": "bytes32",
          "name": "",
          "type": "bytes32"
        }
      ],
      "stateMutability": "view",
      "type": "function"
    },
    {
      "inputs": [],
      "name": "INITIATOR_ROLE",
      "outputs": [
        {
          "internalType": "bytes32",
          "name": "",
          "type": "bytes32"
        }
      ],
      "stateMutability": "view",
      "type": "function"
    },
    {
      "inputs": [],
      "name": "OWNER_ROLE",
      "outputs": [
        {
          "internalType": "bytes32",
          "name": "",
          "type": "bytes32"
        }
      ],
      "stateMutability": "view",
      "type": "function"
    },
    {
      "inputs": [
        {
          "internalType": "uint256",
          "name": "followFee",
          "type": "uint256"
        },
        {
          "internalType": "address",
          "name": "feesCurrency",
          "type": "address"
        }
      ],
      "name": "claimProfile",
      "outputs": [],
      "stateMutability": "nonpayable",
      "type": "function"
    },
    {
      "inputs": [
        {
          "internalType": "bytes32",
          "name": "role",
          "type": "bytes32"
        }
      ],
      "name": "getRoleAdmin",
      "outputs": [
        {
          "internalType": "bytes32",
          "name": "",
          "type": "bytes32"
        }
      ],
      "stateMutability": "view",
      "type": "function"
    },
    {
      "inputs": [
        {
          "internalType": "bytes32",
          "name": "role",
          "type": "bytes32"
        },
        {
          "internalType": "address",
          "name": "account",
          "type": "address"
        }
      ],
      "name": "grantRole",
      "outputs": [],
      "stateMutability": "nonpayable",
      "type": "function"
    },
    {
      "inputs": [
        {
          "internalType": "bytes32",
          "name": "role",
          "type": "bytes32"
        },
        {
          "internalType": "address",
          "name": "account",
          "type": "address"
        }
      ],
      "name": "hasRole",
      "outputs": [
        {
          "internalType": "bool",
          "name": "",
          "type": "bool"
        }
      ],
      "stateMutability": "view",
      "type": "function"
    },
    {
      "inputs": [],
      "name": "huntedProfile",
      "outputs": [
        {
          "internalType": "uint256",
          "name": "profileId",
          "type": "uint256"
        },
        {
          "internalType": "string",
          "name": "twitterProfile",
          "type": "string"
        },
        {
          "internalType": "uint256",
          "name": "amountWithdrawn",
          "type": "uint256"
        },
        {
          "internalType": "address",
          "name": "owner",
          "type": "address"
        }
      ],
      "stateMutability": "view",
      "type": "function"
    },
    {
      "inputs": [],
      "name": "profileHunted",
      "outputs": [
        {
          "internalType": "bool",
          "name": "",
          "type": "bool"
        }
      ],
      "stateMutability": "view",
      "type": "function"
    },
    {
      "inputs": [
        {
          "internalType": "bytes32",
          "name": "role",
          "type": "bytes32"
        },
        {
          "internalType": "address",
          "name": "account",
          "type": "address"
        }
      ],
      "name": "renounceRole",
      "outputs": [],
      "stateMutability": "nonpayable",
      "type": "function"
    },
    {
      "inputs": [
        {
          "internalType": "bytes32",
          "name": "role",
          "type": "bytes32"
        },
        {
          "internalType": "address",
          "name": "account",
          "type": "address"
        }
      ],
      "name": "revokeRole",
      "outputs": [],
      "stateMutability": "nonpayable",
      "type": "function"
    },
    {
      "inputs": [],
      "name": "royaltyFee",
      "outputs": [
        {
          "internalType": "uint8",
          "name": "",
          "type": "uint8"
        }
      ],
      "stateMutability": "view",
      "type": "function"
    },
    {
      "inputs": [],
      "name": "stake",
      "outputs": [],
      "stateMutability": "payable",
      "type": "function"
    },
    {
      "inputs": [
        {
          "internalType": "bytes4",
          "name": "interfaceId",
          "type": "bytes4"
        }
      ],
      "name": "supportsInterface",
      "outputs": [
        {
          "internalType": "bool",
          "name": "",
          "type": "bool"
        }
      ],
      "stateMutability": "view",
      "type": "function"
    },
    {
      "inputs": [],
      "name": "totalAmountStaked",
      "outputs": [
        {
          "internalType": "uint256",
          "name": "",
          "type": "uint256"
        }
      ],
      "stateMutability": "view",
      "type": "function"
    },
    {
      "inputs": [],
      "name": "totalRoyaltiesWithdrawn",
      "outputs": [
        {
          "internalType": "uint256",
          "name": "",
          "type": "uint256"
        }
      ],
      "stateMutability": "view",
      "type": "function"
    },
    {
      "inputs": [
        {
          "internalType": "string",
          "name": "tweetId",
          "type": "string"
        }
      ],
      "name": "verifyProfileOwner",
      "outputs": [],
      "stateMutability": "nonpayable",
      "type": "function"
    },
    {
      "inputs": [],
      "name": "withdrawHunterRewards",
      "outputs": [],
      "stateMutability": "nonpayable",
      "type": "function"
    },
    {
      "inputs": [],
      "name": "withdrawOwnerRewards",
      "outputs": [],
      "stateMutability": "nonpayable",
      "type": "function"
    }
  ],
  "bytecode": "0x6101006040523480156200001257600080fd5b506040516200384a3803806200384a8339818101604052810190620000389190620008a0565b8673ffffffffffffffffffffffffffffffffffffffff1660808173ffffffffffffffffffffffffffffffffffffffff16815250508573ffffffffffffffffffffffffffffffffffffffff1660a08173ffffffffffffffffffffffffffffffffffffffff16815250508473ffffffffffffffffffffffffffffffffffffffff1660c08173ffffffffffffffffffffffffffffffffffffffff16815250508373ffffffffffffffffffffffffffffffffffffffff1660e08173ffffffffffffffffffffffffffffffffffffffff16815250508160059080519060200190620001209291906200054e565b50600060098190555080600860006101000a81548160ff021916908360ff1602179055506000600b60146101000a81548160ff02191690831515021790555062000169620005df565b30816000019073ffffffffffffffffffffffffffffffffffffffff16908173ffffffffffffffffffffffffffffffffffffffff16815250508381602001819052506000816060019073ffffffffffffffffffffffffffffffffffffffff16908173ffffffffffffffffffffffffffffffffffffffff168152505060a05173ffffffffffffffffffffffffffffffffffffffff166307e5f948826040518263ffffffff1660e01b815260040162000220919062000b06565b600060405180830381600087803b1580156200023b57600080fd5b505af115801562000250573d6000803e3d6000fd5b50505050600060805173ffffffffffffffffffffffffffffffffffffffff166320fa728a600180016040518263ffffffff1660e01b815260040162000296919062000c41565b602060405180830381865afa158015620002b4573d6000803e3d6000fd5b505050506040513d601f19601f82011682018060405250810190620002da919062000ca0565b9050604051806080016040528082815260200186815260200160008152602001600073ffffffffffffffffffffffffffffffffffffffff1681525060016000820151816000015560208201518160010190805190602001906200033f9291906200054e565b506040820151816002015560608201518160030160006101000a81548173ffffffffffffffffffffffffffffffffffffffff021916908373ffffffffffffffffffffffffffffffffffffffff160217905550905050620003c67f6b8b15f1c11543d8280deaa7c24d12fffba6a357e4428e8c43e4234790186bff33620003d560201b60201c565b50505050505050505062000cd2565b620003e78282620003eb60201b60201c565b5050565b620003fd8282620004dc60201b60201c565b620004d857600160008084815260200190815260200160002060000160008373ffffffffffffffffffffffffffffffffffffffff1673ffffffffffffffffffffffffffffffffffffffff16815260200190815260200160002060006101000a81548160ff0219169083151502179055506200047d6200054660201b60201c565b73ffffffffffffffffffffffffffffffffffffffff168173ffffffffffffffffffffffffffffffffffffffff16837f2f8788117e7eff1d82e926ec794901d17c78024a50270940304540a733656f0d60405160405180910390a45b5050565b600080600084815260200190815260200160002060000160008373ffffffffffffffffffffffffffffffffffffffff1673ffffffffffffffffffffffffffffffffffffffff16815260200190815260200160002060009054906101000a900460ff16905092915050565b600033905090565b8280546200055c9062000b59565b90600052602060002090601f016020900481019282620005805760008555620005cc565b82601f106200059b57805160ff1916838001178555620005cc565b82800160010185558215620005cc579182015b82811115620005cb578251825591602001919060010190620005ae565b5b509050620005db919062000641565b5090565b6040518060c00160405280600073ffffffffffffffffffffffffffffffffffffffff1681526020016060815260200160608152602001600073ffffffffffffffffffffffffffffffffffffffff16815260200160608152602001606081525090565b5b808211156200065c57600081600090555060010162000642565b5090565b6000604051905090565b600080fd5b600080fd5b600073ffffffffffffffffffffffffffffffffffffffff82169050919050565b6000620006a18262000674565b9050919050565b620006b38162000694565b8114620006bf57600080fd5b50565b600081519050620006d381620006a8565b92915050565b600080fd5b600080fd5b6000601f19601f8301169050919050565b7f4e487b7100000000000000000000000000000000000000000000000000000000600052604160045260246000fd5b6200072e82620006e3565b810181811067ffffffffffffffff8211171562000750576200074f620006f4565b5b80604052505050565b60006200076562000660565b905062000773828262000723565b919050565b600067ffffffffffffffff821115620007965762000795620006f4565b5b620007a182620006e3565b9050602081019050919050565b60005b83811015620007ce578082015181840152602081019050620007b1565b83811115620007de576000848401525b50505050565b6000620007fb620007f58462000778565b62000759565b9050828152602081018484840111156200081a5762000819620006de565b5b62000827848285620007ae565b509392505050565b600082601f830112620008475762000846620006d9565b5b815162000859848260208601620007e4565b91505092915050565b600060ff82169050919050565b6200087a8162000862565b81146200088657600080fd5b50565b6000815190506200089a816200086f565b92915050565b600080600080600080600060e0888a031215620008c257620008c16200066a565b5b6000620008d28a828b01620006c2565b9750506020620008e58a828b01620006c2565b9650506040620008f88a828b01620006c2565b95505060606200090b8a828b01620006c2565b945050608088015167ffffffffffffffff8111156200092f576200092e6200066f565b5b6200093d8a828b016200082f565b93505060a088015167ffffffffffffffff8111156200096157620009606200066f565b5b6200096f8a828b016200082f565b92505060c0620009828a828b0162000889565b91505092959891949750929550565b6200099c8162000694565b82525050565b600081519050919050565b600082825260208201905092915050565b6000620009cb82620009a2565b620009d78185620009ad565b9350620009e9818560208601620007ae565b620009f481620006e3565b840191505092915050565b600081519050919050565b600082825260208201905092915050565b600062000a2882620009ff565b62000a34818562000a0a565b935062000a46818560208601620007ae565b62000a5181620006e3565b840191505092915050565b600060c08301600083015162000a76600086018262000991565b506020830151848203602086015262000a908282620009be565b9150506040830151848203604086015262000aac8282620009be565b915050606083015162000ac3606086018262000991565b506080830151848203608086015262000add828262000a1b565b91505060a083015184820360a086015262000af98282620009be565b9150508091505092915050565b6000602082019050818103600083015262000b22818462000a5c565b905092915050565b7f4e487b7100000000000000000000000000000000000000000000000000000000600052602260045260246000fd5b6000600282049050600182168062000b7257607f821691505b6020821081141562000b895762000b8862000b2a565b5b50919050565b600082825260208201905092915050565b60008190508160005260206000209050919050565b6000815462000bc48162000b59565b62000bd0818662000b8f565b9450600182166000811462000bee576001811462000c015762000c38565b60ff198316865260208601935062000c38565b62000c0c8562000ba0565b60005b8381101562000c305781548189015260018201915060208101905062000c0f565b808801955050505b50505092915050565b6000602082019050818103600083015262000c5d818462000bb5565b905092915050565b6000819050919050565b62000c7a8162000c65565b811462000c8657600080fd5b50565b60008151905062000c9a8162000c6f565b92915050565b60006020828403121562000cb95762000cb86200066a565b5b600062000cc98482850162000c89565b91505092915050565b60805160a05160c05160e051612b3a62000d10600039600081816109c501526112e90152600061081d01526000505060006107db0152612b3a6000f3fe60806040526004361061011f5760003560e01c8063a217fddf116100a0578063d547741f11610064578063d547741f146103a2578063dad8bc80146103cb578063e58378bb146103f9578063ee991b5e14610424578063fe961f611461043b5761011f565b8063a217fddf146102e1578063a98e0bf41461030c578063b25a23e114610337578063b8997a9714610360578063cbcc29c61461038b5761011f565b80633a4b66f1116100e75780633a4b66f11461021b5780634350fbc7146102255780634a42a55d146102505780635b1fb9e61461027957806391d14854146102a45761011f565b806301ffc9a7146101245780631990e97914610161578063248a9ca31461018c5780632f2ff15d146101c957806336568abe146101f2575b600080fd5b34801561013057600080fd5b5061014b60048036038101906101469190611a8b565b610466565b6040516101589190611ad3565b60405180910390f35b34801561016d57600080fd5b506101766104e0565b6040516101839190611b07565b60405180910390f35b34801561019857600080fd5b506101b360048036038101906101ae9190611b4e565b610504565b6040516101c09190611b07565b60405180910390f35b3480156101d557600080fd5b506101f060048036038101906101eb9190611bd9565b610523565b005b3480156101fe57600080fd5b5061021960048036038101906102149190611bd9565b61054c565b005b6102236105cf565b005b34801561023157600080fd5b5061023a610715565b6040516102479190611c32565b60405180910390f35b34801561025c57600080fd5b5061027760048036038101906102729190611c79565b61071b565b005b34801561028557600080fd5b5061028e61091b565b60405161029b9190611ad3565b60405180910390f35b3480156102b057600080fd5b506102cb60048036038101906102c69190611bd9565b61092e565b6040516102d89190611ad3565b60405180910390f35b3480156102ed57600080fd5b506102f6610998565b6040516103039190611b07565b60405180910390f35b34801561031857600080fd5b5061032161099f565b60405161032e9190611b07565b60405180910390f35b34801561034357600080fd5b5061035e60048036038101906103599190611dff565b6109c3565b005b34801561036c57600080fd5b50610375610a70565b6040516103829190611e64565b60405180910390f35b34801561039757600080fd5b506103a0610a83565b005b3480156103ae57600080fd5b506103c960048036038101906103c49190611bd9565b610d20565b005b3480156103d757600080fd5b506103e0610d49565b6040516103f09493929190611f16565b60405180910390f35b34801561040557600080fd5b5061040e610e0f565b60405161041b9190611b07565b60405180910390f35b34801561043057600080fd5b50610439610e33565b005b34801561044757600080fd5b50610450611001565b60405161045d9190611c32565b60405180910390f35b60007f7965db0b000000000000000000000000000000000000000000000000000000007bffffffffffffffffffffffffffffffffffffffffffffffffffffffff1916827bffffffffffffffffffffffffffffffffffffffffffffffffffffffff191614806104d957506104d882611007565b5b9050919050565b7f6b8b15f1c11543d8280deaa7c24d12fffba6a357e4428e8c43e4234790186bff81565b6000806000838152602001908152602001600020600101549050919050565b61052c82610504565b61053d81610538611071565b611079565b6105478383611116565b505050565b610554611071565b73ffffffffffffffffffffffffffffffffffffffff168173ffffffffffffffffffffffffffffffffffffffff16146105c1576040517f08c379a00000000000000000000000000000000000000000000000000000000081526004016105b890611fd4565b60405180910390fd5b6105cb82826111f6565b5050565b600b60149054906101000a900460ff16156105e957600080fd5b600034116105f657600080fd5b34600760003373ffffffffffffffffffffffffffffffffffffffff1673ffffffffffffffffffffffffffffffffffffffff16815260200190815260200160002060000160008282546106489190612023565b9250508190555034600960008282546106619190612023565b925050819055507ff556991011e831bcfac4f406d547e5e32cdd98267efab83935230d5f8d02c4463334600760003373ffffffffffffffffffffffffffffffffffffffff1673ffffffffffffffffffffffffffffffffffffffff168152602001908152602001600020600001546009546040516106e19493929190612079565b60405180910390a16107137fbc7cd1906cf807c8f89dc868f0a8d55007c0e0aaaf7b083aeb000f5f5fc79d15336112d7565b565b600a5481565b6107236112e5565b61072c57600080fd5b33600160030160006101000a81548173ffffffffffffffffffffffffffffffffffffffff021916908373ffffffffffffffffffffffffffffffffffffffff16021790555080600b60006101000a81548173ffffffffffffffffffffffffffffffffffffffff021916908373ffffffffffffffffffffffffffffffffffffffff16021790555060008282306040516020016107c8939291906120be565b60405160208183030381529060405290507f000000000000000000000000000000000000000000000000000000000000000073ffffffffffffffffffffffffffffffffffffffff16636dea40b36001600001547f0000000000000000000000000000000000000000000000000000000000000000846040518463ffffffff1660e01b815260040161085b9392919061214a565b600060405180830381600087803b15801561087557600080fd5b505af1158015610889573d6000803e3d6000fd5b50505050600160030160009054906101000a900473ffffffffffffffffffffffffffffffffffffffff1673ffffffffffffffffffffffffffffffffffffffff166108fc6009549081150290604051600060405180830381858888f193505050501580156108fa573d6000803e3d6000fd5b506001600b60146101000a81548160ff021916908315150217905550505050565b600b60149054906101000a900460ff1681565b600080600084815260200190815260200160002060000160008373ffffffffffffffffffffffffffffffffffffffff1673ffffffffffffffffffffffffffffffffffffffff16815260200190815260200160002060009054906101000a900460ff16905092915050565b6000801b81565b7fbc7cd1906cf807c8f89dc868f0a8d55007c0e0aaaf7b083aeb000f5f5fc79d1581565b7f000000000000000000000000000000000000000000000000000000000000000073ffffffffffffffffffffffffffffffffffffffff1663f12afb74600180018360056040518463ffffffff1660e01b8152600401610a249392919061227e565b6020604051808303816000875af1158015610a43573d6000803e3d6000fd5b505050506040513d601f19601f82011682018060405250810190610a6791906122df565b60068190555050565b600860009054906101000a900460ff1681565b6000339050610ab27fbc7cd1906cf807c8f89dc868f0a8d55007c0e0aaaf7b083aeb000f5f5fc79d158261092e565b610af1576040517f08c379a0000000000000000000000000000000000000000000000000000000008152600401610ae890612358565b60405180910390fd5b6000610afb611388565b602001519050600081600954600760008673ffffffffffffffffffffffffffffffffffffffff1673ffffffffffffffffffffffffffffffffffffffff16815260200190815260200160002060000154610b5491906123a7565b610b5e91906123d8565b90506000600760008573ffffffffffffffffffffffffffffffffffffffff1673ffffffffffffffffffffffffffffffffffffffff1681526020019081526020016000206001015482610bb09190612432565b905060008111610bf5576040517f08c379a0000000000000000000000000000000000000000000000000000000008152600401610bec906124b2565b60405180910390fd5b610c44308583600b60009054906101000a900473ffffffffffffffffffffffffffffffffffffffff1673ffffffffffffffffffffffffffffffffffffffff16611404909392919063ffffffff16565b80600760008673ffffffffffffffffffffffffffffffffffffffff1673ffffffffffffffffffffffffffffffffffffffff1681526020019081526020016000206001016000828254610c969190612023565b925050819055507f17fa61e1edcb52b7cde15506e02c61b67d96dce3ee6b1f753b6b63ad88f115138482600760008873ffffffffffffffffffffffffffffffffffffffff1673ffffffffffffffffffffffffffffffffffffffff16815260200190815260200160002060010154604051610d1293929190612531565b60405180910390a150505050565b610d2982610504565b610d3a81610d35611071565b611079565b610d4483836111f6565b505050565b6001806000015490806001018054610d60906121b7565b80601f0160208091040260200160405190810160405280929190818152602001828054610d8c906121b7565b8015610dd95780601f10610dae57610100808354040283529160200191610dd9565b820191906000526020600020905b815481529060010190602001808311610dbc57829003601f168201915b5050505050908060020154908060030160009054906101000a900473ffffffffffffffffffffffffffffffffffffffff16905084565b7fb19546dff01e856fb3f010c267a7b1c60363cf8a4664e21cc89c26224620214e81565b610e5d7fb19546dff01e856fb3f010c267a7b1c60363cf8a4664e21cc89c26224620214e3361092e565b610e9c576040517f08c379a0000000000000000000000000000000000000000000000000000000008152600401610e93906125b4565b60405180910390fd5b6000610ea6611388565b6000015190506001600201548111610ef3576040517f08c379a0000000000000000000000000000000000000000000000000000000008152600401610eea906124b2565b60405180910390fd5b600060016002015482610f069190612432565b9050610f7c30600160030160009054906101000a900473ffffffffffffffffffffffffffffffffffffffff1683600b60009054906101000a900473ffffffffffffffffffffffffffffffffffffffff1673ffffffffffffffffffffffffffffffffffffffff16611404909392919063ffffffff16565b8060016002016000828254610f919190612023565b925050819055507f17fa61e1edcb52b7cde15506e02c61b67d96dce3ee6b1f753b6b63ad88f11513600160030160009054906101000a900473ffffffffffffffffffffffffffffffffffffffff1682600160020154604051610ff5939291906125d4565b60405180910390a15050565b60095481565b60007f01ffc9a7000000000000000000000000000000000000000000000000000000007bffffffffffffffffffffffffffffffffffffffffffffffffffffffff1916827bffffffffffffffffffffffffffffffffffffffffffffffffffffffff1916149050919050565b600033905090565b611083828261092e565b611112576110a88173ffffffffffffffffffffffffffffffffffffffff16601461148d565b6110b68360001c602061148d565b6040516020016110c79291906126df565b6040516020818303038152906040526040517f08c379a00000000000000000000000000000000000000000000000000000000081526004016111099190612719565b60405180910390fd5b5050565b611120828261092e565b6111f257600160008084815260200190815260200160002060000160008373ffffffffffffffffffffffffffffffffffffffff1673ffffffffffffffffffffffffffffffffffffffff16815260200190815260200160002060006101000a81548160ff021916908315150217905550611197611071565b73ffffffffffffffffffffffffffffffffffffffff168173ffffffffffffffffffffffffffffffffffffffff16837f2f8788117e7eff1d82e926ec794901d17c78024a50270940304540a733656f0d60405160405180910390a45b5050565b611200828261092e565b156112d357600080600084815260200190815260200160002060000160008373ffffffffffffffffffffffffffffffffffffffff1673ffffffffffffffffffffffffffffffffffffffff16815260200190815260200160002060006101000a81548160ff021916908315150217905550611278611071565b73ffffffffffffffffffffffffffffffffffffffff168173ffffffffffffffffffffffffffffffffffffffff16837ff6391f5c32d9c69d2a47ea670b442974b53935d1edc7fd64eb21e047a839171b60405160405180910390a45b5050565b6112e18282611116565b5050565b60007f000000000000000000000000000000000000000000000000000000000000000073ffffffffffffffffffffffffffffffffffffffff1663add4c7846006546040518263ffffffff1660e01b81526004016113429190611b07565b602060405180830381865afa15801561135f573d6000803e3d6000fd5b505050506040513d601f19601f820116820180604052508101906113839190612767565b905090565b611390611a05565b611398611a05565b60006113a26116c9565b90506064600860009054906101000a900460ff1660646113c29190612794565b60ff16826113d091906123d8565b6113da91906123a7565b8260000181815250508160000151816113f39190612432565b826020018181525050819250505090565b611487846323b872dd60e01b858585604051602401611425939291906127c8565b604051602081830303815290604052907bffffffffffffffffffffffffffffffffffffffffffffffffffffffff19166020820180517bffffffffffffffffffffffffffffffffffffffffffffffffffffffff83818316178352505050506116e5565b50505050565b6060600060028360026114a091906123d8565b6114aa9190612023565b67ffffffffffffffff8111156114c3576114c2611cd4565b5b6040519080825280601f01601f1916602001820160405280156114f55781602001600182028036833780820191505090505b5090507f30000000000000000000000000000000000000000000000000000000000000008160008151811061152d5761152c6127ff565b5b60200101907effffffffffffffffffffffffffffffffffffffffffffffffffffffffffffff1916908160001a9053507f780000000000000000000000000000000000000000000000000000000000000081600181518110611591576115906127ff565b5b60200101907effffffffffffffffffffffffffffffffffffffffffffffffffffffffffffff1916908160001a905350600060018460026115d191906123d8565b6115db9190612023565b90505b600181111561167b577f3031323334353637383961626364656600000000000000000000000000000000600f86166010811061161d5761161c6127ff565b5b1a60f81b828281518110611634576116336127ff565b5b60200101907effffffffffffffffffffffffffffffffffffffffffffffffffffffffffffff1916908160001a905350600485901c9450806116749061282e565b90506115de565b50600084146116bf576040517f08c379a00000000000000000000000000000000000000000000000000000000081526004016116b6906128a4565b60405180910390fd5b8091505092915050565b6000600a546116d66117ac565b6116e09190612023565b905090565b6000611747826040518060400160405280602081526020017f5361666545524332303a206c6f772d6c6576656c2063616c6c206661696c65648152508573ffffffffffffffffffffffffffffffffffffffff1661184f9092919063ffffffff16565b90506000815111156117a757808060200190518101906117679190612767565b6117a6576040517f08c379a000000000000000000000000000000000000000000000000000000000815260040161179d90612936565b60405180910390fd5b5b505050565b6000600b60009054906101000a900473ffffffffffffffffffffffffffffffffffffffff1673ffffffffffffffffffffffffffffffffffffffff166370a08231306040518263ffffffff1660e01b81526004016118099190612956565b602060405180830381865afa158015611826573d6000803e3d6000fd5b505050506040513d601f19601f8201168201806040525081019061184a9190612986565b905090565b606061185e8484600085611867565b90509392505050565b6060824710156118ac576040517f08c379a00000000000000000000000000000000000000000000000000000000081526004016118a390612a25565b60405180910390fd5b6118b58561197b565b6118f4576040517f08c379a00000000000000000000000000000000000000000000000000000000081526004016118eb90612a91565b60405180910390fd5b6000808673ffffffffffffffffffffffffffffffffffffffff16858760405161191d9190612aed565b60006040518083038185875af1925050503d806000811461195a576040519150601f19603f3d011682016040523d82523d6000602084013e61195f565b606091505b509150915061196f82828661199e565b92505050949350505050565b6000808273ffffffffffffffffffffffffffffffffffffffff163b119050919050565b606083156119ae578290506119fe565b6000835111156119c15782518084602001fd5b816040517f08c379a00000000000000000000000000000000000000000000000000000000081526004016119f59190612719565b60405180910390fd5b9392505050565b604051806040016040528060008152602001600081525090565b6000604051905090565b600080fd5b600080fd5b60007fffffffff0000000000000000000000000000000000000000000000000000000082169050919050565b611a6881611a33565b8114611a7357600080fd5b50565b600081359050611a8581611a5f565b92915050565b600060208284031215611aa157611aa0611a29565b5b6000611aaf84828501611a76565b91505092915050565b60008115159050919050565b611acd81611ab8565b82525050565b6000602082019050611ae86000830184611ac4565b92915050565b6000819050919050565b611b0181611aee565b82525050565b6000602082019050611b1c6000830184611af8565b92915050565b611b2b81611aee565b8114611b3657600080fd5b50565b600081359050611b4881611b22565b92915050565b600060208284031215611b6457611b63611a29565b5b6000611b7284828501611b39565b91505092915050565b600073ffffffffffffffffffffffffffffffffffffffff82169050919050565b6000611ba682611b7b565b9050919050565b611bb681611b9b565b8114611bc157600080fd5b50565b600081359050611bd381611bad565b92915050565b60008060408385031215611bf057611bef611a29565b5b6000611bfe85828601611b39565b9250506020611c0f85828601611bc4565b9150509250929050565b6000819050919050565b611c2c81611c19565b82525050565b6000602082019050611c476000830184611c23565b92915050565b611c5681611c19565b8114611c6157600080fd5b50565b600081359050611c7381611c4d565b92915050565b60008060408385031215611c9057611c8f611a29565b5b6000611c9e85828601611c64565b9250506020611caf85828601611bc4565b9150509250929050565b600080fd5b600080fd5b6000601f19601f8301169050919050565b7f4e487b7100000000000000000000000000000000000000000000000000000000600052604160045260246000fd5b611d0c82611cc3565b810181811067ffffffffffffffff82111715611d2b57611d2a611cd4565b5b80604052505050565b6000611d3e611a1f565b9050611d4a8282611d03565b919050565b600067ffffffffffffffff821115611d6a57611d69611cd4565b5b611d7382611cc3565b9050602081019050919050565b82818337600083830152505050565b6000611da2611d9d84611d4f565b611d34565b905082815260208101848484011115611dbe57611dbd611cbe565b5b611dc9848285611d80565b509392505050565b600082601f830112611de657611de5611cb9565b5b8135611df6848260208601611d8f565b91505092915050565b600060208284031215611e1557611e14611a29565b5b600082013567ffffffffffffffff811115611e3357611e32611a2e565b5b611e3f84828501611dd1565b91505092915050565b600060ff82169050919050565b611e5e81611e48565b82525050565b6000602082019050611e796000830184611e55565b92915050565b600081519050919050565b600082825260208201905092915050565b60005b83811015611eb9578082015181840152602081019050611e9e565b83811115611ec8576000848401525b50505050565b6000611ed982611e7f565b611ee38185611e8a565b9350611ef3818560208601611e9b565b611efc81611cc3565b840191505092915050565b611f1081611b9b565b82525050565b6000608082019050611f2b6000830187611c23565b8181036020830152611f3d8186611ece565b9050611f4c6040830185611c23565b611f596060830184611f07565b95945050505050565b7f416363657373436f6e74726f6c3a2063616e206f6e6c792072656e6f756e636560008201527f20726f6c657320666f722073656c660000000000000000000000000000000000602082015250565b6000611fbe602f83611e8a565b9150611fc982611f62565b604082019050919050565b60006020820190508181036000830152611fed81611fb1565b9050919050565b7f4e487b7100000000000000000000000000000000000000000000000000000000600052601160045260246000fd5b600061202e82611c19565b915061203983611c19565b9250827fffffffffffffffffffffffffffffffffffffffffffffffffffffffffffffffff0382111561206e5761206d611ff4565b5b828201905092915050565b600060808201905061208e6000830187611f07565b61209b6020830186611c23565b6120a86040830185611c23565b6120b56060830184611c23565b95945050505050565b60006060820190506120d36000830186611c23565b6120e06020830185611f07565b6120ed6040830184611f07565b949350505050565b600081519050919050565b600082825260208201905092915050565b600061211c826120f5565b6121268185612100565b9350612136818560208601611e9b565b61213f81611cc3565b840191505092915050565b600060608201905061215f6000830186611c23565b61216c6020830185611f07565b818103604083015261217e8184612111565b9050949350505050565b7f4e487b7100000000000000000000000000000000000000000000000000000000600052602260045260246000fd5b600060028204905060018216806121cf57607f821691505b602082108114156121e3576121e2612188565b5b50919050565b60008190508160005260206000209050919050565b6000815461220b816121b7565b6122158186611e8a565b94506001821660008114612230576001811461224257612275565b60ff1983168652602086019350612275565b61224b856121e9565b60005b8381101561226d5781548189015260018201915060208101905061224e565b808801955050505b50505092915050565b6000606082019050818103600083015261229881866121fe565b905081810360208301526122ac8185611ece565b905081810360408301526122c081846121fe565b9050949350505050565b6000815190506122d981611b22565b92915050565b6000602082840312156122f5576122f4611a29565b5b6000612303848285016122ca565b91505092915050565b7f43616c6c6572206973206e6f7420612068756e74657200000000000000000000600082015250565b6000612342601683611e8a565b915061234d8261230c565b602082019050919050565b6000602082019050818103600083015261237181612335565b9050919050565b7f4e487b7100000000000000000000000000000000000000000000000000000000600052601260045260246000fd5b60006123b282611c19565b91506123bd83611c19565b9250826123cd576123cc612378565b5b828204905092915050565b60006123e382611c19565b91506123ee83611c19565b9250817fffffffffffffffffffffffffffffffffffffffffffffffffffffffffffffffff048311821515161561242757612426611ff4565b5b828202905092915050565b600061243d82611c19565b915061244883611c19565b92508282101561245b5761245a611ff4565b5b828203905092915050565b7f4e6f20726f79616c7469657320746f2077697468647261770000000000000000600082015250565b600061249c601883611e8a565b91506124a782612466565b602082019050919050565b600060208201905081810360008301526124cb8161248f565b9050919050565b6000819050919050565b60006124f76124f26124ed84611b7b565b6124d2565b611b7b565b9050919050565b6000612509826124dc565b9050919050565b600061251b826124fe565b9050919050565b61252b81612510565b82525050565b60006060820190506125466000830186612522565b6125536020830185611c23565b6125606040830184611c23565b949350505050565b7f43616c6c6572206973206e6f7420616e206f776e657200000000000000000000600082015250565b600061259e601683611e8a565b91506125a982612568565b602082019050919050565b600060208201905081810360008301526125cd81612591565b9050919050565b60006060820190506125e96000830186611f07565b6125f66020830185611c23565b6126036040830184611c23565b949350505050565b600081905092915050565b7f416363657373436f6e74726f6c3a206163636f756e7420000000000000000000600082015250565b600061264c60178361260b565b915061265782612616565b601782019050919050565b600061266d82611e7f565b612677818561260b565b9350612687818560208601611e9b565b80840191505092915050565b7f206973206d697373696e6720726f6c6520000000000000000000000000000000600082015250565b60006126c960118361260b565b91506126d482612693565b601182019050919050565b60006126ea8261263f565b91506126f68285612662565b9150612701826126bc565b915061270d8284612662565b91508190509392505050565b600060208201905081810360008301526127338184611ece565b905092915050565b61274481611ab8565b811461274f57600080fd5b50565b6000815190506127618161273b565b92915050565b60006020828403121561277d5761277c611a29565b5b600061278b84828501612752565b91505092915050565b600061279f82611e48565b91506127aa83611e48565b9250828210156127bd576127bc611ff4565b5b828203905092915050565b60006060820190506127dd6000830186611f07565b6127ea6020830185611f07565b6127f76040830184611c23565b949350505050565b7f4e487b7100000000000000000000000000000000000000000000000000000000600052603260045260246000fd5b600061283982611c19565b9150600082141561284d5761284c611ff4565b5b600182039050919050565b7f537472696e67733a20686578206c656e67746820696e73756666696369656e74600082015250565b600061288e602083611e8a565b915061289982612858565b602082019050919050565b600060208201905081810360008301526128bd81612881565b9050919050565b7f5361666545524332303a204552433230206f7065726174696f6e20646964206e60008201527f6f74207375636365656400000000000000000000000000000000000000000000602082015250565b6000612920602a83611e8a565b915061292b826128c4565b604082019050919050565b6000602082019050818103600083015261294f81612913565b9050919050565b600060208201905061296b6000830184611f07565b92915050565b60008151905061298081611c4d565b92915050565b60006020828403121561299c5761299b611a29565b5b60006129aa84828501612971565b91505092915050565b7f416464726573733a20696e73756666696369656e742062616c616e636520666f60008201527f722063616c6c0000000000000000000000000000000000000000000000000000602082015250565b6000612a0f602683611e8a565b9150612a1a826129b3565b604082019050919050565b60006020820190508181036000830152612a3e81612a02565b9050919050565b7f416464726573733a2063616c6c20746f206e6f6e2d636f6e7472616374000000600082015250565b6000612a7b601d83611e8a565b9150612a8682612a45565b602082019050919050565b60006020820190508181036000830152612aaa81612a6e565b9050919050565b600081905092915050565b6000612ac7826120f5565b612ad18185612ab1565b9350612ae1818560208601611e9b565b80840191505092915050565b6000612af98284612abc565b91508190509291505056fea2646970667358221220ec7c5b066576ae21748e9f53b62998c6fb4681b413f1a3f8e27adcbc4a0ef2dd64736f6c634300080a0033",
  "linkReferences": {},
  "deployedLinkReferences": {}
}