{
  "_format": "hh-sol-artifact-1",
  "contractName": "HuntedAccountFactory",
  "sourceName": "contracts/HuntedAccountFactory.sol",
  "abi": [
    {
      "inputs": [
        {
          "internalType": "address",
          "name": "lensHub",
          "type": "address"
        },
        {
          "internalType": "address",
          "name": "mockProfileCreationProxy",
          "type": "address"
        },
        {
          "internalType": "address",
          "name": "feeFollowModule",
          "type": "address"
        },
        {
          "internalType": "address",
          "name": "twitterVerifier",
          "type": "address"
        }
      ],
      "stateMutability": "nonpayable",
      "type": "constructor"
    },
    {
      "anonymous": false,
      "inputs": [
        {
          "indexed": false,
          "internalType": "address",
          "name": "huntedAccount",
          "type": "address"
        }
      ],
      "name": "HuntedAccountCreated",
      "type": "event"
    },
    {
      "inputs": [
        {
          "internalType": "string",
          "name": "twitterProfile",
          "type": "string"
        }
      ],
      "name": "getHuntedAccountByTwitterProfile",
      "outputs": [
        {
          "internalType": "address",
          "name": "",
          "type": "address"
        }
      ],
      "stateMutability": "view",
      "type": "function"
    },
    {
      "inputs": [],
      "name": "getHuntedAccounts",
      "outputs": [
        {
          "internalType": "address[]",
          "name": "",
          "type": "address[]"
        }
      ],
      "stateMutability": "view",
      "type": "function"
    },
    {
      "inputs": [
        {
          "internalType": "string",
          "name": "_twitterProfile",
          "type": "string"
        },
        {
          "internalType": "string",
          "name": "_challenge",
          "type": "string"
        },
        {
          "internalType": "uint8",
          "name": "_royaltyFee",
          "type": "uint8"
        }
      ],
      "name": "newHuntedAccount",
      "outputs": [
        {
          "internalType": "address",
          "name": "",
          "type": "address"
        }
      ],
      "stateMutability": "nonpayable",
      "type": "function"
    }
  ],
  "bytecode": "0x61010060405234801561001157600080fd5b50604051620042593803806200425983398181016040528101906100359190610171565b8373ffffffffffffffffffffffffffffffffffffffff1660808173ffffffffffffffffffffffffffffffffffffffff16815250508273ffffffffffffffffffffffffffffffffffffffff1660a08173ffffffffffffffffffffffffffffffffffffffff16815250508173ffffffffffffffffffffffffffffffffffffffff1660c08173ffffffffffffffffffffffffffffffffffffffff16815250508073ffffffffffffffffffffffffffffffffffffffff1660e08173ffffffffffffffffffffffffffffffffffffffff1681525050505050506101d8565b600080fd5b600073ffffffffffffffffffffffffffffffffffffffff82169050919050565b600061013e82610113565b9050919050565b61014e81610133565b811461015957600080fd5b50565b60008151905061016b81610145565b92915050565b6000806000806080858703121561018b5761018a61010e565b5b60006101998782880161015c565b94505060206101aa8782880161015c565b93505060406101bb8782880161015c565b92505060606101cc8782880161015c565b91505092959194509250565b60805160a05160c05160e051614049620002106000396000610141015260006101200152600060ff0152600060de01526140496000f3fe60806040523480156200001157600080fd5b5060043610620000465760003560e01c806325810a7a146200004b5780634af624c81462000081578063a4e4bd3514620000b7575b600080fd5b6200006960048036038101906200006391906200054b565b620000d9565b6040516200007891906200062a565b60405180910390f35b6200009f600480360381019062000099919062000647565b620002af565b604051620000ae91906200062a565b60405180910390f35b620000c1620002f9565b604051620000d0919062000766565b60405180910390f35b6000807f00000000000000000000000000000000000000000000000000000000000000007f00000000000000000000000000000000000000000000000000000000000000007f00000000000000000000000000000000000000000000000000000000000000007f0000000000000000000000000000000000000000000000000000000000000000888888604051620001719062000389565b6200018397969594939291906200082e565b604051809103906000f080158015620001a0573d6000803e3d6000fd5b50905060008190506000819080600181540180825580915050600190039060005260206000200160009091909190916101000a81548173ffffffffffffffffffffffffffffffffffffffff021916908373ffffffffffffffffffffffffffffffffffffffff160217905550806001876040516200021e9190620008fb565b908152602001604051809103902060006101000a81548173ffffffffffffffffffffffffffffffffffffffff021916908373ffffffffffffffffffffffffffffffffffffffff1602179055507f0d3188fb5f1d57e898adca7a8bd2585ac7116a30099b18624ba82f7b153fece7826040516200029b91906200062a565b60405180910390a180925050509392505050565b6000600182604051620002c39190620008fb565b908152602001604051809103902060009054906101000a900473ffffffffffffffffffffffffffffffffffffffff169050919050565b606060008054806020026020016040519081016040528092919081815260200182805480156200037f57602002820191906000526020600020905b8160009054906101000a900473ffffffffffffffffffffffffffffffffffffffff1673ffffffffffffffffffffffffffffffffffffffff168152602001906001019080831162000334575b5050505050905090565b6136ff806200091583390190565b6000604051905090565b600080fd5b600080fd5b600080fd5b600080fd5b6000601f19601f8301169050919050565b7f4e487b7100000000000000000000000000000000000000000000000000000000600052604160045260246000fd5b6200040082620003b5565b810181811067ffffffffffffffff82111715620004225762000421620003c6565b5b80604052505050565b60006200043762000397565b9050620004458282620003f5565b919050565b600067ffffffffffffffff821115620004685762000467620003c6565b5b6200047382620003b5565b9050602081019050919050565b82818337600083830152505050565b6000620004a6620004a0846200044a565b6200042b565b905082815260208101848484011115620004c557620004c4620003b0565b5b620004d284828562000480565b509392505050565b600082601f830112620004f257620004f1620003ab565b5b8135620005048482602086016200048f565b91505092915050565b600060ff82169050919050565b62000525816200050d565b81146200053157600080fd5b50565b60008135905062000545816200051a565b92915050565b600080600060608486031215620005675762000566620003a1565b5b600084013567ffffffffffffffff811115620005885762000587620003a6565b5b6200059686828701620004da565b935050602084013567ffffffffffffffff811115620005ba57620005b9620003a6565b5b620005c886828701620004da565b9250506040620005db8682870162000534565b9150509250925092565b600073ffffffffffffffffffffffffffffffffffffffff82169050919050565b60006200061282620005e5565b9050919050565b620006248162000605565b82525050565b600060208201905062000641600083018462000619565b92915050565b60006020828403121562000660576200065f620003a1565b5b600082013567ffffffffffffffff811115620006815762000680620003a6565b5b6200068f84828501620004da565b91505092915050565b600081519050919050565b600082825260208201905092915050565b6000819050602082019050919050565b620006cf8162000605565b82525050565b6000620006e38383620006c4565b60208301905092915050565b6000602082019050919050565b6000620007098262000698565b620007158185620006a3565b93506200072283620006b4565b8060005b83811015620007595781516200073d8882620006d5565b97506200074a83620006ef565b92505060018101905062000726565b5085935050505092915050565b60006020820190508181036000830152620007828184620006fc565b905092915050565b600081519050919050565b600082825260208201905092915050565b60005b83811015620007c6578082015181840152602081019050620007a9565b83811115620007d6576000848401525b50505050565b6000620007e9826200078a565b620007f5818562000795565b935062000807818560208601620007a6565b6200081281620003b5565b840191505092915050565b62000828816200050d565b82525050565b600060e08201905062000845600083018a62000619565b62000854602083018962000619565b62000863604083018862000619565b62000872606083018762000619565b8181036080830152620008868186620007dc565b905081810360a08301526200089c8185620007dc565b9050620008ad60c08301846200081d565b98975050505050505050565b600081905092915050565b6000620008d1826200078a565b620008dd8185620008b9565b9350620008ef818560208601620007a6565b80840191505092915050565b6000620009098284620008c4565b91508190509291505056fe6101006040523480156200001257600080fd5b50604051620036ff380380620036ff8339818101604052810190620000389190620008a0565b8673ffffffffffffffffffffffffffffffffffffffff1660808173ffffffffffffffffffffffffffffffffffffffff16815250508573ffffffffffffffffffffffffffffffffffffffff1660a08173ffffffffffffffffffffffffffffffffffffffff16815250508473ffffffffffffffffffffffffffffffffffffffff1660c08173ffffffffffffffffffffffffffffffffffffffff16815250508373ffffffffffffffffffffffffffffffffffffffff1660e08173ffffffffffffffffffffffffffffffffffffffff16815250508160059080519060200190620001209291906200054e565b50600060098190555080600860006101000a81548160ff021916908360ff1602179055506000600b60146101000a81548160ff02191690831515021790555062000169620005df565b30816000019073ffffffffffffffffffffffffffffffffffffffff16908173ffffffffffffffffffffffffffffffffffffffff16815250508381602001819052506000816060019073ffffffffffffffffffffffffffffffffffffffff16908173ffffffffffffffffffffffffffffffffffffffff168152505060a05173ffffffffffffffffffffffffffffffffffffffff166307e5f948826040518263ffffffff1660e01b815260040162000220919062000b06565b600060405180830381600087803b1580156200023b57600080fd5b505af115801562000250573d6000803e3d6000fd5b50505050600060805173ffffffffffffffffffffffffffffffffffffffff166320fa728a600180016040518263ffffffff1660e01b815260040162000296919062000c41565b602060405180830381865afa158015620002b4573d6000803e3d6000fd5b505050506040513d601f19601f82011682018060405250810190620002da919062000ca0565b9050604051806080016040528082815260200186815260200160008152602001600073ffffffffffffffffffffffffffffffffffffffff1681525060016000820151816000015560208201518160010190805190602001906200033f9291906200054e565b506040820151816002015560608201518160030160006101000a81548173ffffffffffffffffffffffffffffffffffffffff021916908373ffffffffffffffffffffffffffffffffffffffff160217905550905050620003c67f6b8b15f1c11543d8280deaa7c24d12fffba6a357e4428e8c43e4234790186bff33620003d560201b60201c565b50505050505050505062000cd2565b620003e78282620003eb60201b60201c565b5050565b620003fd8282620004dc60201b60201c565b620004d857600160008084815260200190815260200160002060000160008373ffffffffffffffffffffffffffffffffffffffff1673ffffffffffffffffffffffffffffffffffffffff16815260200190815260200160002060006101000a81548160ff0219169083151502179055506200047d6200054660201b60201c565b73ffffffffffffffffffffffffffffffffffffffff168173ffffffffffffffffffffffffffffffffffffffff16837f2f8788117e7eff1d82e926ec794901d17c78024a50270940304540a733656f0d60405160405180910390a45b5050565b600080600084815260200190815260200160002060000160008373ffffffffffffffffffffffffffffffffffffffff1673ffffffffffffffffffffffffffffffffffffffff16815260200190815260200160002060009054906101000a900460ff16905092915050565b600033905090565b8280546200055c9062000b59565b90600052602060002090601f016020900481019282620005805760008555620005cc565b82601f106200059b57805160ff1916838001178555620005cc565b82800160010185558215620005cc579182015b82811115620005cb578251825591602001919060010190620005ae565b5b509050620005db919062000641565b5090565b6040518060c00160405280600073ffffffffffffffffffffffffffffffffffffffff1681526020016060815260200160608152602001600073ffffffffffffffffffffffffffffffffffffffff16815260200160608152602001606081525090565b5b808211156200065c57600081600090555060010162000642565b5090565b6000604051905090565b600080fd5b600080fd5b600073ffffffffffffffffffffffffffffffffffffffff82169050919050565b6000620006a18262000674565b9050919050565b620006b38162000694565b8114620006bf57600080fd5b50565b600081519050620006d381620006a8565b92915050565b600080fd5b600080fd5b6000601f19601f8301169050919050565b7f4e487b7100000000000000000000000000000000000000000000000000000000600052604160045260246000fd5b6200072e82620006e3565b810181811067ffffffffffffffff8211171562000750576200074f620006f4565b5b80604052505050565b60006200076562000660565b905062000773828262000723565b919050565b600067ffffffffffffffff821115620007965762000795620006f4565b5b620007a182620006e3565b9050602081019050919050565b60005b83811015620007ce578082015181840152602081019050620007b1565b83811115620007de576000848401525b50505050565b6000620007fb620007f58462000778565b62000759565b9050828152602081018484840111156200081a5762000819620006de565b5b62000827848285620007ae565b509392505050565b600082601f830112620008475762000846620006d9565b5b815162000859848260208601620007e4565b91505092915050565b600060ff82169050919050565b6200087a8162000862565b81146200088657600080fd5b50565b6000815190506200089a816200086f565b92915050565b600080600080600080600060e0888a031215620008c257620008c16200066a565b5b6000620008d28a828b01620006c2565b9750506020620008e58a828b01620006c2565b9650506040620008f88a828b01620006c2565b95505060606200090b8a828b01620006c2565b945050608088015167ffffffffffffffff8111156200092f576200092e6200066f565b5b6200093d8a828b016200082f565b93505060a088015167ffffffffffffffff8111156200096157620009606200066f565b5b6200096f8a828b016200082f565b92505060c0620009828a828b0162000889565b91505092959891949750929550565b6200099c8162000694565b82525050565b600081519050919050565b600082825260208201905092915050565b6000620009cb82620009a2565b620009d78185620009ad565b9350620009e9818560208601620007ae565b620009f481620006e3565b840191505092915050565b600081519050919050565b600082825260208201905092915050565b600062000a2882620009ff565b62000a34818562000a0a565b935062000a46818560208601620007ae565b62000a5181620006e3565b840191505092915050565b600060c08301600083015162000a76600086018262000991565b506020830151848203602086015262000a908282620009be565b9150506040830151848203604086015262000aac8282620009be565b915050606083015162000ac3606086018262000991565b506080830151848203608086015262000add828262000a1b565b91505060a083015184820360a086015262000af98282620009be565b9150508091505092915050565b6000602082019050818103600083015262000b22818462000a5c565b905092915050565b7f4e487b7100000000000000000000000000000000000000000000000000000000600052602260045260246000fd5b6000600282049050600182168062000b7257607f821691505b6020821081141562000b895762000b8862000b2a565b5b50919050565b600082825260208201905092915050565b60008190508160005260206000209050919050565b6000815462000bc48162000b59565b62000bd0818662000b8f565b9450600182166000811462000bee576001811462000c015762000c38565b60ff198316865260208601935062000c38565b62000c0c8562000ba0565b60005b8381101562000c305781548189015260018201915060208101905062000c0f565b808801955050505b50505092915050565b6000602082019050818103600083015262000c5d818462000bb5565b905092915050565b6000819050919050565b62000c7a8162000c65565b811462000c8657600080fd5b50565b60008151905062000c9a8162000c6f565b92915050565b60006020828403121562000cb95762000cb86200066a565b5b600062000cc98482850162000c89565b91505092915050565b60805160a05160c05160e0516129ef62000d106000396000818161098c01526111ea015260006107e401526000505060006107a201526129ef6000f3fe6080604052600436106101145760003560e01c806391d14854116100a0578063cbcc29c611610064578063cbcc29c614610380578063d547741f14610397578063e58378bb146103c0578063ee991b5e146103eb578063fe961f611461040257610114565b806391d1485414610299578063a217fddf146102d6578063a98e0bf414610301578063b25a23e11461032c578063b8997a971461035557610114565b806336568abe116100e757806336568abe146101e75780633a4b66f1146102105780634350fbc71461021a5780634a42a55d146102455780635b1fb9e61461026e57610114565b806301ffc9a7146101195780631990e97914610156578063248a9ca3146101815780632f2ff15d146101be575b600080fd5b34801561012557600080fd5b50610140600480360381019061013b919061198c565b61042d565b60405161014d91906119d4565b60405180910390f35b34801561016257600080fd5b5061016b6104a7565b6040516101789190611a08565b60405180910390f35b34801561018d57600080fd5b506101a860048036038101906101a39190611a4f565b6104cb565b6040516101b59190611a08565b60405180910390f35b3480156101ca57600080fd5b506101e560048036038101906101e09190611ada565b6104ea565b005b3480156101f357600080fd5b5061020e60048036038101906102099190611ada565b610513565b005b610218610596565b005b34801561022657600080fd5b5061022f6106dc565b60405161023c9190611b33565b60405180910390f35b34801561025157600080fd5b5061026c60048036038101906102679190611b7a565b6106e2565b005b34801561027a57600080fd5b506102836108e2565b60405161029091906119d4565b60405180910390f35b3480156102a557600080fd5b506102c060048036038101906102bb9190611ada565b6108f5565b6040516102cd91906119d4565b60405180910390f35b3480156102e257600080fd5b506102eb61095f565b6040516102f89190611a08565b60405180910390f35b34801561030d57600080fd5b50610316610966565b6040516103239190611a08565b60405180910390f35b34801561033857600080fd5b50610353600480360381019061034e9190611d00565b61098a565b005b34801561036157600080fd5b5061036a610a37565b6040516103779190611d65565b60405180910390f35b34801561038c57600080fd5b50610395610a4a565b005b3480156103a357600080fd5b506103be60048036038101906103b99190611ada565b610ce7565b005b3480156103cc57600080fd5b506103d5610d10565b6040516103e29190611a08565b60405180910390f35b3480156103f757600080fd5b50610400610d34565b005b34801561040e57600080fd5b50610417610f02565b6040516104249190611b33565b60405180910390f35b60007f7965db0b000000000000000000000000000000000000000000000000000000007bffffffffffffffffffffffffffffffffffffffffffffffffffffffff1916827bffffffffffffffffffffffffffffffffffffffffffffffffffffffff191614806104a0575061049f82610f08565b5b9050919050565b7f6b8b15f1c11543d8280deaa7c24d12fffba6a357e4428e8c43e4234790186bff81565b6000806000838152602001908152602001600020600101549050919050565b6104f3826104cb565b610504816104ff610f72565b610f7a565b61050e8383611017565b505050565b61051b610f72565b73ffffffffffffffffffffffffffffffffffffffff168173ffffffffffffffffffffffffffffffffffffffff1614610588576040517f08c379a000000000000000000000000000000000000000000000000000000000815260040161057f90611e03565b60405180910390fd5b61059282826110f7565b5050565b600b60149054906101000a900460ff16156105b057600080fd5b600034116105bd57600080fd5b34600760003373ffffffffffffffffffffffffffffffffffffffff1673ffffffffffffffffffffffffffffffffffffffff168152602001908152602001600020600001600082825461060f9190611e52565b9250508190555034600960008282546106289190611e52565b925050819055507ff556991011e831bcfac4f406d547e5e32cdd98267efab83935230d5f8d02c4463334600760003373ffffffffffffffffffffffffffffffffffffffff1673ffffffffffffffffffffffffffffffffffffffff168152602001908152602001600020600001546009546040516106a89493929190611eb7565b60405180910390a16106da7fbc7cd1906cf807c8f89dc868f0a8d55007c0e0aaaf7b083aeb000f5f5fc79d15336111d8565b565b600a5481565b6106ea6111e6565b6106f357600080fd5b33600160030160006101000a81548173ffffffffffffffffffffffffffffffffffffffff021916908373ffffffffffffffffffffffffffffffffffffffff16021790555080600b60006101000a81548173ffffffffffffffffffffffffffffffffffffffff021916908373ffffffffffffffffffffffffffffffffffffffff160217905550600082823060405160200161078f93929190611efc565b60405160208183030381529060405290507f000000000000000000000000000000000000000000000000000000000000000073ffffffffffffffffffffffffffffffffffffffff16636dea40b36001600001547f0000000000000000000000000000000000000000000000000000000000000000846040518463ffffffff1660e01b815260040161082293929190611fbb565b600060405180830381600087803b15801561083c57600080fd5b505af1158015610850573d6000803e3d6000fd5b50505050600160030160009054906101000a900473ffffffffffffffffffffffffffffffffffffffff1673ffffffffffffffffffffffffffffffffffffffff166108fc6009549081150290604051600060405180830381858888f193505050501580156108c1573d6000803e3d6000fd5b506001600b60146101000a81548160ff021916908315150217905550505050565b600b60149054906101000a900460ff1681565b600080600084815260200190815260200160002060000160008373ffffffffffffffffffffffffffffffffffffffff1673ffffffffffffffffffffffffffffffffffffffff16815260200190815260200160002060009054906101000a900460ff16905092915050565b6000801b81565b7fbc7cd1906cf807c8f89dc868f0a8d55007c0e0aaaf7b083aeb000f5f5fc79d1581565b7f000000000000000000000000000000000000000000000000000000000000000073ffffffffffffffffffffffffffffffffffffffff1663f12afb74600180018360056040518463ffffffff1660e01b81526004016109eb93929190612133565b6020604051808303816000875af1158015610a0a573d6000803e3d6000fd5b505050506040513d601f19601f82011682018060405250810190610a2e9190612194565b60068190555050565b600860009054906101000a900460ff1681565b6000339050610a797fbc7cd1906cf807c8f89dc868f0a8d55007c0e0aaaf7b083aeb000f5f5fc79d15826108f5565b610ab8576040517f08c379a0000000000000000000000000000000000000000000000000000000008152600401610aaf9061220d565b60405180910390fd5b6000610ac2611289565b602001519050600081600954600760008673ffffffffffffffffffffffffffffffffffffffff1673ffffffffffffffffffffffffffffffffffffffff16815260200190815260200160002060000154610b1b919061225c565b610b25919061228d565b90506000600760008573ffffffffffffffffffffffffffffffffffffffff1673ffffffffffffffffffffffffffffffffffffffff1681526020019081526020016000206001015482610b7791906122e7565b905060008111610bbc576040517f08c379a0000000000000000000000000000000000000000000000000000000008152600401610bb390612367565b60405180910390fd5b610c0b308583600b60009054906101000a900473ffffffffffffffffffffffffffffffffffffffff1673ffffffffffffffffffffffffffffffffffffffff16611305909392919063ffffffff16565b80600760008673ffffffffffffffffffffffffffffffffffffffff1673ffffffffffffffffffffffffffffffffffffffff1681526020019081526020016000206001016000828254610c5d9190611e52565b925050819055507f17fa61e1edcb52b7cde15506e02c61b67d96dce3ee6b1f753b6b63ad88f115138482600760008873ffffffffffffffffffffffffffffffffffffffff1673ffffffffffffffffffffffffffffffffffffffff16815260200190815260200160002060010154604051610cd9939291906123e6565b60405180910390a150505050565b610cf0826104cb565b610d0181610cfc610f72565b610f7a565b610d0b83836110f7565b505050565b7fb19546dff01e856fb3f010c267a7b1c60363cf8a4664e21cc89c26224620214e81565b610d5e7fb19546dff01e856fb3f010c267a7b1c60363cf8a4664e21cc89c26224620214e336108f5565b610d9d576040517f08c379a0000000000000000000000000000000000000000000000000000000008152600401610d9490612469565b60405180910390fd5b6000610da7611289565b6000015190506001600201548111610df4576040517f08c379a0000000000000000000000000000000000000000000000000000000008152600401610deb90612367565b60405180910390fd5b600060016002015482610e0791906122e7565b9050610e7d30600160030160009054906101000a900473ffffffffffffffffffffffffffffffffffffffff1683600b60009054906101000a900473ffffffffffffffffffffffffffffffffffffffff1673ffffffffffffffffffffffffffffffffffffffff16611305909392919063ffffffff16565b8060016002016000828254610e929190611e52565b925050819055507f17fa61e1edcb52b7cde15506e02c61b67d96dce3ee6b1f753b6b63ad88f11513600160030160009054906101000a900473ffffffffffffffffffffffffffffffffffffffff1682600160020154604051610ef693929190612489565b60405180910390a15050565b60095481565b60007f01ffc9a7000000000000000000000000000000000000000000000000000000007bffffffffffffffffffffffffffffffffffffffffffffffffffffffff1916827bffffffffffffffffffffffffffffffffffffffffffffffffffffffff1916149050919050565b600033905090565b610f8482826108f5565b61101357610fa98173ffffffffffffffffffffffffffffffffffffffff16601461138e565b610fb78360001c602061138e565b604051602001610fc8929190612594565b6040516020818303038152906040526040517f08c379a000000000000000000000000000000000000000000000000000000000815260040161100a91906125ce565b60405180910390fd5b5050565b61102182826108f5565b6110f357600160008084815260200190815260200160002060000160008373ffffffffffffffffffffffffffffffffffffffff1673ffffffffffffffffffffffffffffffffffffffff16815260200190815260200160002060006101000a81548160ff021916908315150217905550611098610f72565b73ffffffffffffffffffffffffffffffffffffffff168173ffffffffffffffffffffffffffffffffffffffff16837f2f8788117e7eff1d82e926ec794901d17c78024a50270940304540a733656f0d60405160405180910390a45b5050565b61110182826108f5565b156111d457600080600084815260200190815260200160002060000160008373ffffffffffffffffffffffffffffffffffffffff1673ffffffffffffffffffffffffffffffffffffffff16815260200190815260200160002060006101000a81548160ff021916908315150217905550611179610f72565b73ffffffffffffffffffffffffffffffffffffffff168173ffffffffffffffffffffffffffffffffffffffff16837ff6391f5c32d9c69d2a47ea670b442974b53935d1edc7fd64eb21e047a839171b60405160405180910390a45b5050565b6111e28282611017565b5050565b60007f000000000000000000000000000000000000000000000000000000000000000073ffffffffffffffffffffffffffffffffffffffff1663add4c7846006546040518263ffffffff1660e01b81526004016112439190611a08565b602060405180830381865afa158015611260573d6000803e3d6000fd5b505050506040513d601f19601f82011682018060405250810190611284919061261c565b905090565b611291611906565b611299611906565b60006112a36115ca565b90506064600860009054906101000a900460ff1660646112c39190612649565b60ff16826112d1919061228d565b6112db919061225c565b8260000181815250508160000151816112f491906122e7565b826020018181525050819250505090565b611388846323b872dd60e01b8585856040516024016113269392919061267d565b604051602081830303815290604052907bffffffffffffffffffffffffffffffffffffffffffffffffffffffff19166020820180517bffffffffffffffffffffffffffffffffffffffffffffffffffffffff83818316178352505050506115e6565b50505050565b6060600060028360026113a1919061228d565b6113ab9190611e52565b67ffffffffffffffff8111156113c4576113c3611bd5565b5b6040519080825280601f01601f1916602001820160405280156113f65781602001600182028036833780820191505090505b5090507f30000000000000000000000000000000000000000000000000000000000000008160008151811061142e5761142d6126b4565b5b60200101907effffffffffffffffffffffffffffffffffffffffffffffffffffffffffffff1916908160001a9053507f780000000000000000000000000000000000000000000000000000000000000081600181518110611492576114916126b4565b5b60200101907effffffffffffffffffffffffffffffffffffffffffffffffffffffffffffff1916908160001a905350600060018460026114d2919061228d565b6114dc9190611e52565b90505b600181111561157c577f3031323334353637383961626364656600000000000000000000000000000000600f86166010811061151e5761151d6126b4565b5b1a60f81b828281518110611535576115346126b4565b5b60200101907effffffffffffffffffffffffffffffffffffffffffffffffffffffffffffff1916908160001a905350600485901c945080611575906126e3565b90506114df565b50600084146115c0576040517f08c379a00000000000000000000000000000000000000000000000000000000081526004016115b790612759565b60405180910390fd5b8091505092915050565b6000600a546115d76116ad565b6115e19190611e52565b905090565b6000611648826040518060400160405280602081526020017f5361666545524332303a206c6f772d6c6576656c2063616c6c206661696c65648152508573ffffffffffffffffffffffffffffffffffffffff166117509092919063ffffffff16565b90506000815111156116a85780806020019051810190611668919061261c565b6116a7576040517f08c379a000000000000000000000000000000000000000000000000000000000815260040161169e906127eb565b60405180910390fd5b5b505050565b6000600b60009054906101000a900473ffffffffffffffffffffffffffffffffffffffff1673ffffffffffffffffffffffffffffffffffffffff166370a08231306040518263ffffffff1660e01b815260040161170a919061280b565b602060405180830381865afa158015611727573d6000803e3d6000fd5b505050506040513d601f19601f8201168201806040525081019061174b919061283b565b905090565b606061175f8484600085611768565b90509392505050565b6060824710156117ad576040517f08c379a00000000000000000000000000000000000000000000000000000000081526004016117a4906128da565b60405180910390fd5b6117b68561187c565b6117f5576040517f08c379a00000000000000000000000000000000000000000000000000000000081526004016117ec90612946565b60405180910390fd5b6000808673ffffffffffffffffffffffffffffffffffffffff16858760405161181e91906129a2565b60006040518083038185875af1925050503d806000811461185b576040519150601f19603f3d011682016040523d82523d6000602084013e611860565b606091505b509150915061187082828661189f565b92505050949350505050565b6000808273ffffffffffffffffffffffffffffffffffffffff163b119050919050565b606083156118af578290506118ff565b6000835111156118c25782518084602001fd5b816040517f08c379a00000000000000000000000000000000000000000000000000000000081526004016118f691906125ce565b60405180910390fd5b9392505050565b604051806040016040528060008152602001600081525090565b6000604051905090565b600080fd5b600080fd5b60007fffffffff0000000000000000000000000000000000000000000000000000000082169050919050565b61196981611934565b811461197457600080fd5b50565b60008135905061198681611960565b92915050565b6000602082840312156119a2576119a161192a565b5b60006119b084828501611977565b91505092915050565b60008115159050919050565b6119ce816119b9565b82525050565b60006020820190506119e960008301846119c5565b92915050565b6000819050919050565b611a02816119ef565b82525050565b6000602082019050611a1d60008301846119f9565b92915050565b611a2c816119ef565b8114611a3757600080fd5b50565b600081359050611a4981611a23565b92915050565b600060208284031215611a6557611a6461192a565b5b6000611a7384828501611a3a565b91505092915050565b600073ffffffffffffffffffffffffffffffffffffffff82169050919050565b6000611aa782611a7c565b9050919050565b611ab781611a9c565b8114611ac257600080fd5b50565b600081359050611ad481611aae565b92915050565b60008060408385031215611af157611af061192a565b5b6000611aff85828601611a3a565b9250506020611b1085828601611ac5565b9150509250929050565b6000819050919050565b611b2d81611b1a565b82525050565b6000602082019050611b486000830184611b24565b92915050565b611b5781611b1a565b8114611b6257600080fd5b50565b600081359050611b7481611b4e565b92915050565b60008060408385031215611b9157611b9061192a565b5b6000611b9f85828601611b65565b9250506020611bb085828601611ac5565b9150509250929050565b600080fd5b600080fd5b6000601f19601f8301169050919050565b7f4e487b7100000000000000000000000000000000000000000000000000000000600052604160045260246000fd5b611c0d82611bc4565b810181811067ffffffffffffffff82111715611c2c57611c2b611bd5565b5b80604052505050565b6000611c3f611920565b9050611c4b8282611c04565b919050565b600067ffffffffffffffff821115611c6b57611c6a611bd5565b5b611c7482611bc4565b9050602081019050919050565b82818337600083830152505050565b6000611ca3611c9e84611c50565b611c35565b905082815260208101848484011115611cbf57611cbe611bbf565b5b611cca848285611c81565b509392505050565b600082601f830112611ce757611ce6611bba565b5b8135611cf7848260208601611c90565b91505092915050565b600060208284031215611d1657611d1561192a565b5b600082013567ffffffffffffffff811115611d3457611d3361192f565b5b611d4084828501611cd2565b91505092915050565b600060ff82169050919050565b611d5f81611d49565b82525050565b6000602082019050611d7a6000830184611d56565b92915050565b600082825260208201905092915050565b7f416363657373436f6e74726f6c3a2063616e206f6e6c792072656e6f756e636560008201527f20726f6c657320666f722073656c660000000000000000000000000000000000602082015250565b6000611ded602f83611d80565b9150611df882611d91565b604082019050919050565b60006020820190508181036000830152611e1c81611de0565b9050919050565b7f4e487b7100000000000000000000000000000000000000000000000000000000600052601160045260246000fd5b6000611e5d82611b1a565b9150611e6883611b1a565b9250827fffffffffffffffffffffffffffffffffffffffffffffffffffffffffffffffff03821115611e9d57611e9c611e23565b5b828201905092915050565b611eb181611a9c565b82525050565b6000608082019050611ecc6000830187611ea8565b611ed96020830186611b24565b611ee66040830185611b24565b611ef36060830184611b24565b95945050505050565b6000606082019050611f116000830186611b24565b611f1e6020830185611ea8565b611f2b6040830184611ea8565b949350505050565b600081519050919050565b600082825260208201905092915050565b60005b83811015611f6d578082015181840152602081019050611f52565b83811115611f7c576000848401525b50505050565b6000611f8d82611f33565b611f978185611f3e565b9350611fa7818560208601611f4f565b611fb081611bc4565b840191505092915050565b6000606082019050611fd06000830186611b24565b611fdd6020830185611ea8565b8181036040830152611fef8184611f82565b9050949350505050565b7f4e487b7100000000000000000000000000000000000000000000000000000000600052602260045260246000fd5b6000600282049050600182168061204057607f821691505b6020821081141561205457612053611ff9565b5b50919050565b60008190508160005260206000209050919050565b6000815461207c81612028565b6120868186611d80565b945060018216600081146120a157600181146120b3576120e6565b60ff19831686526020860193506120e6565b6120bc8561205a565b60005b838110156120de578154818901526001820191506020810190506120bf565b808801955050505b50505092915050565b600081519050919050565b6000612105826120ef565b61210f8185611d80565b935061211f818560208601611f4f565b61212881611bc4565b840191505092915050565b6000606082019050818103600083015261214d818661206f565b9050818103602083015261216181856120fa565b90508181036040830152612175818461206f565b9050949350505050565b60008151905061218e81611a23565b92915050565b6000602082840312156121aa576121a961192a565b5b60006121b88482850161217f565b91505092915050565b7f43616c6c6572206973206e6f7420612068756e74657200000000000000000000600082015250565b60006121f7601683611d80565b9150612202826121c1565b602082019050919050565b60006020820190508181036000830152612226816121ea565b9050919050565b7f4e487b7100000000000000000000000000000000000000000000000000000000600052601260045260246000fd5b600061226782611b1a565b915061227283611b1a565b9250826122825761228161222d565b5b828204905092915050565b600061229882611b1a565b91506122a383611b1a565b9250817fffffffffffffffffffffffffffffffffffffffffffffffffffffffffffffffff04831182151516156122dc576122db611e23565b5b828202905092915050565b60006122f282611b1a565b91506122fd83611b1a565b9250828210156123105761230f611e23565b5b828203905092915050565b7f4e6f20726f79616c7469657320746f2077697468647261770000000000000000600082015250565b6000612351601883611d80565b915061235c8261231b565b602082019050919050565b6000602082019050818103600083015261238081612344565b9050919050565b6000819050919050565b60006123ac6123a76123a284611a7c565b612387565b611a7c565b9050919050565b60006123be82612391565b9050919050565b60006123d0826123b3565b9050919050565b6123e0816123c5565b82525050565b60006060820190506123fb60008301866123d7565b6124086020830185611b24565b6124156040830184611b24565b949350505050565b7f43616c6c6572206973206e6f7420616e206f776e657200000000000000000000600082015250565b6000612453601683611d80565b915061245e8261241d565b602082019050919050565b6000602082019050818103600083015261248281612446565b9050919050565b600060608201905061249e6000830186611ea8565b6124ab6020830185611b24565b6124b86040830184611b24565b949350505050565b600081905092915050565b7f416363657373436f6e74726f6c3a206163636f756e7420000000000000000000600082015250565b60006125016017836124c0565b915061250c826124cb565b601782019050919050565b6000612522826120ef565b61252c81856124c0565b935061253c818560208601611f4f565b80840191505092915050565b7f206973206d697373696e6720726f6c6520000000000000000000000000000000600082015250565b600061257e6011836124c0565b915061258982612548565b601182019050919050565b600061259f826124f4565b91506125ab8285612517565b91506125b682612571565b91506125c28284612517565b91508190509392505050565b600060208201905081810360008301526125e881846120fa565b905092915050565b6125f9816119b9565b811461260457600080fd5b50565b600081519050612616816125f0565b92915050565b6000602082840312156126325761263161192a565b5b600061264084828501612607565b91505092915050565b600061265482611d49565b915061265f83611d49565b92508282101561267257612671611e23565b5b828203905092915050565b60006060820190506126926000830186611ea8565b61269f6020830185611ea8565b6126ac6040830184611b24565b949350505050565b7f4e487b7100000000000000000000000000000000000000000000000000000000600052603260045260246000fd5b60006126ee82611b1a565b9150600082141561270257612701611e23565b5b600182039050919050565b7f537472696e67733a20686578206c656e67746820696e73756666696369656e74600082015250565b6000612743602083611d80565b915061274e8261270d565b602082019050919050565b6000602082019050818103600083015261277281612736565b9050919050565b7f5361666545524332303a204552433230206f7065726174696f6e20646964206e60008201527f6f74207375636365656400000000000000000000000000000000000000000000602082015250565b60006127d5602a83611d80565b91506127e082612779565b604082019050919050565b60006020820190508181036000830152612804816127c8565b9050919050565b60006020820190506128206000830184611ea8565b92915050565b60008151905061283581611b4e565b92915050565b6000602082840312156128515761285061192a565b5b600061285f84828501612826565b91505092915050565b7f416464726573733a20696e73756666696369656e742062616c616e636520666f60008201527f722063616c6c0000000000000000000000000000000000000000000000000000602082015250565b60006128c4602683611d80565b91506128cf82612868565b604082019050919050565b600060208201905081810360008301526128f3816128b7565b9050919050565b7f416464726573733a2063616c6c20746f206e6f6e2d636f6e7472616374000000600082015250565b6000612930601d83611d80565b915061293b826128fa565b602082019050919050565b6000602082019050818103600083015261295f81612923565b9050919050565b600081905092915050565b600061297c82611f33565b6129868185612966565b9350612996818560208601611f4f565b80840191505092915050565b60006129ae8284612971565b91508190509291505056fea264697066735822122045e6910d7c9cde969874d1caac07a8b9f4ba65c6db4b48e0e9e5e80c8ef6b8a064736f6c634300080a0033a26469706673582212209a550120a385cd8b018f2fcf3b7b326f5339dc1ef80a1ba46a53434af93f4ce364736f6c634300080a0033",
  "linkReferences": {},
  "deployedLinkReferences": {}
}