{
  "_format": "hh-sol-artifact-1",
  "contractName": "HuntedAccountFactory",
  "sourceName": "contracts/HuntedAccountFactory.sol",
  "abi": [
    {
      "inputs": [
        {
          "internalType": "address",
          "name": "hub",
          "type": "address"
        }
      ],
      "stateMutability": "nonpayable",
      "type": "constructor"
    },
    {
      "inputs": [
        {
          "internalType": "string",
          "name": "_twitterProfile",
          "type": "string"
        },
        {
          "internalType": "uint8",
          "name": "_royaltyFee",
          "type": "uint8"
        }
      ],
      "name": "newHuntedAccount",
      "outputs": [
        {
          "internalType": "address",
          "name": "",
          "type": "address"
        }
      ],
      "stateMutability": "nonpayable",
      "type": "function"
    }
  ],
  "bytecode": "0x60a060405234801561001057600080fd5b50604051613149380380613149833981810160405281019061003291906100cf565b8073ffffffffffffffffffffffffffffffffffffffff1660808173ffffffffffffffffffffffffffffffffffffffff1681525050506100fc565b600080fd5b600073ffffffffffffffffffffffffffffffffffffffff82169050919050565b600061009c82610071565b9050919050565b6100ac81610091565b81146100b757600080fd5b50565b6000815190506100c9816100a3565b92915050565b6000602082840312156100e5576100e461006c565b5b60006100f3848285016100ba565b91505092915050565b6080516130336101166000396000606e01526130336000f3fe60806040523480156200001157600080fd5b50600436106200002e5760003560e01c8063935ccce11462000033575b600080fd5b6200005160048036038101906200004b919062000297565b62000069565b60405162000060919062000342565b60405180910390f35b6000807f000000000000000000000000000000000000000000000000000000000000000084846040516200009d90620000d5565b620000ab9392919062000403565b604051809103906000f080158015620000c8573d6000803e3d6000fd5b5090508091505092915050565b612bb6806200044883390190565b6000604051905090565b600080fd5b600080fd5b600080fd5b600080fd5b6000601f19601f8301169050919050565b7f4e487b7100000000000000000000000000000000000000000000000000000000600052604160045260246000fd5b6200014c8262000101565b810181811067ffffffffffffffff821117156200016e576200016d62000112565b5b80604052505050565b600062000183620000e3565b905062000191828262000141565b919050565b600067ffffffffffffffff821115620001b457620001b362000112565b5b620001bf8262000101565b9050602081019050919050565b82818337600083830152505050565b6000620001f2620001ec8462000196565b62000177565b905082815260208101848484011115620002115762000210620000fc565b5b6200021e848285620001cc565b509392505050565b600082601f8301126200023e576200023d620000f7565b5b813562000250848260208601620001db565b91505092915050565b600060ff82169050919050565b620002718162000259565b81146200027d57600080fd5b50565b600081359050620002918162000266565b92915050565b60008060408385031215620002b157620002b0620000ed565b5b600083013567ffffffffffffffff811115620002d257620002d1620000f2565b5b620002e08582860162000226565b9250506020620002f38582860162000280565b9150509250929050565b600073ffffffffffffffffffffffffffffffffffffffff82169050919050565b60006200032a82620002fd565b9050919050565b6200033c816200031d565b82525050565b600060208201905062000359600083018462000331565b92915050565b600081519050919050565b600082825260208201905092915050565b60005b838110156200039b5780820151818401526020810190506200037e565b83811115620003ab576000848401525b50505050565b6000620003be826200035f565b620003ca81856200036a565b9350620003dc8185602086016200037b565b620003e78162000101565b840191505092915050565b620003fd8162000259565b82525050565b60006060820190506200041a600083018662000331565b81810360208301526200042e8185620003b1565b90506200043f6040830184620003f2565b94935050505056fe60a06040523480156200001157600080fd5b5060405162002bb638038062002bb68339818101604052810190620000379190620005f5565b8273ffffffffffffffffffffffffffffffffffffffff1660808173ffffffffffffffffffffffffffffffffffffffff1681525050604051806060016040528083815260200160008152602001600073ffffffffffffffffffffffffffffffffffffffff1681525060016000820151816000019080519060200190620000be92919062000305565b506020820151816001015560408201518160020160006101000a81548173ffffffffffffffffffffffffffffffffffffffff021916908373ffffffffffffffffffffffffffffffffffffffff160217905550905050600060068190555080600560006101000a81548160ff021916908360ff1602179055506000600860146101000a81548160ff021916908315150217905550620001837f6b8b15f1c11543d8280deaa7c24d12fffba6a357e4428e8c43e4234790186bff336200018c60201b60201c565b505050620006d5565b6200019e8282620001a260201b60201c565b5050565b620001b482826200029360201b60201c565b6200028f57600160008084815260200190815260200160002060000160008373ffffffffffffffffffffffffffffffffffffffff1673ffffffffffffffffffffffffffffffffffffffff16815260200190815260200160002060006101000a81548160ff02191690831515021790555062000234620002fd60201b60201c565b73ffffffffffffffffffffffffffffffffffffffff168173ffffffffffffffffffffffffffffffffffffffff16837f2f8788117e7eff1d82e926ec794901d17c78024a50270940304540a733656f0d60405160405180910390a45b5050565b600080600084815260200190815260200160002060000160008373ffffffffffffffffffffffffffffffffffffffff1673ffffffffffffffffffffffffffffffffffffffff16815260200190815260200160002060009054906101000a900460ff16905092915050565b600033905090565b82805462000313906200069f565b90600052602060002090601f01602090048101928262000337576000855562000383565b82601f106200035257805160ff191683800117855562000383565b8280016001018555821562000383579182015b828111156200038257825182559160200191906001019062000365565b5b50905062000392919062000396565b5090565b5b80821115620003b157600081600090555060010162000397565b5090565b6000604051905090565b600080fd5b600080fd5b600073ffffffffffffffffffffffffffffffffffffffff82169050919050565b6000620003f682620003c9565b9050919050565b6200040881620003e9565b81146200041457600080fd5b50565b6000815190506200042881620003fd565b92915050565b600080fd5b600080fd5b6000601f19601f8301169050919050565b7f4e487b7100000000000000000000000000000000000000000000000000000000600052604160045260246000fd5b620004838262000438565b810181811067ffffffffffffffff82111715620004a557620004a462000449565b5b80604052505050565b6000620004ba620003b5565b9050620004c8828262000478565b919050565b600067ffffffffffffffff821115620004eb57620004ea62000449565b5b620004f68262000438565b9050602081019050919050565b60005b838110156200052357808201518184015260208101905062000506565b8381111562000533576000848401525b50505050565b6000620005506200054a84620004cd565b620004ae565b9050828152602081018484840111156200056f576200056e62000433565b5b6200057c84828562000503565b509392505050565b600082601f8301126200059c576200059b6200042e565b5b8151620005ae84826020860162000539565b91505092915050565b600060ff82169050919050565b620005cf81620005b7565b8114620005db57600080fd5b50565b600081519050620005ef81620005c4565b92915050565b600080600060608486031215620006115762000610620003bf565b5b6000620006218682870162000417565b935050602084015167ffffffffffffffff811115620006455762000644620003c4565b5b620006538682870162000584565b92505060406200066686828701620005de565b9150509250925092565b7f4e487b7100000000000000000000000000000000000000000000000000000000600052602260045260246000fd5b60006002820490506001821680620006b857607f821691505b60208210811415620006cf57620006ce62000670565b5b50919050565b6080516124c8620006ee600039600050506124c86000f3fe6080604052600436106100fe5760003560e01c806391d1485411610095578063cbcc29c611610064578063cbcc29c614610316578063d547741f1461032d578063e58378bb14610356578063ee991b5e14610381578063fe961f6114610398576100fe565b806391d1485414610258578063a217fddf14610295578063a98e0bf4146102c0578063b8997a97146102eb576100fe565b806336568abe116100d157806336568abe146101d1578063399d6498146101fa5780633a4b66f1146102235780634350fbc71461022d576100fe565b806301ffc9a7146101035780631990e97914610140578063248a9ca31461016b5780632f2ff15d146101a8575b600080fd5b34801561010f57600080fd5b5061012a600480360381019061012591906116ea565b6103c3565b6040516101379190611732565b60405180910390f35b34801561014c57600080fd5b5061015561043d565b6040516101629190611766565b60405180910390f35b34801561017757600080fd5b50610192600480360381019061018d91906117ad565b610461565b60405161019f9190611766565b60405180910390f35b3480156101b457600080fd5b506101cf60048036038101906101ca9190611838565b610480565b005b3480156101dd57600080fd5b506101f860048036038101906101f39190611838565b6104a9565b005b34801561020657600080fd5b50610221600480360381019061021c91906119be565b61052c565b005b61022b610652565b005b34801561023957600080fd5b50610242610798565b60405161024f9190611a33565b60405180910390f35b34801561026457600080fd5b5061027f600480360381019061027a9190611838565b61079e565b60405161028c9190611732565b60405180910390f35b3480156102a157600080fd5b506102aa610808565b6040516102b79190611766565b60405180910390f35b3480156102cc57600080fd5b506102d561080f565b6040516102e29190611766565b60405180910390f35b3480156102f757600080fd5b50610300610833565b60405161030d9190611a6a565b60405180910390f35b34801561032257600080fd5b5061032b610846565b005b34801561033957600080fd5b50610354600480360381019061034f9190611838565b610ae3565b005b34801561036257600080fd5b5061036b610b0c565b6040516103789190611766565b60405180910390f35b34801561038d57600080fd5b50610396610b30565b005b3480156103a457600080fd5b506103ad610cfa565b6040516103ba9190611a33565b60405180910390f35b60007f7965db0b000000000000000000000000000000000000000000000000000000007bffffffffffffffffffffffffffffffffffffffffffffffffffffffff1916827bffffffffffffffffffffffffffffffffffffffffffffffffffffffff19161480610436575061043582610d00565b5b9050919050565b7f6b8b15f1c11543d8280deaa7c24d12fffba6a357e4428e8c43e4234790186bff81565b6000806000838152602001908152602001600020600101549050919050565b61048982610461565b61049a81610495610d6a565b610d72565b6104a48383610e0f565b505050565b6104b1610d6a565b73ffffffffffffffffffffffffffffffffffffffff168173ffffffffffffffffffffffffffffffffffffffff161461051e576040517f08c379a000000000000000000000000000000000000000000000000000000000815260040161051590611b08565b60405180910390fd5b6105288282610eef565b5050565b610534610fd0565b61053d57600080fd5b33600160020160006101000a81548173ffffffffffffffffffffffffffffffffffffffff021916908373ffffffffffffffffffffffffffffffffffffffff16021790555080600860006101000a81548173ffffffffffffffffffffffffffffffffffffffff021916908373ffffffffffffffffffffffffffffffffffffffff1602179055506000600160020160009054906101000a900473ffffffffffffffffffffffffffffffffffffffff1673ffffffffffffffffffffffffffffffffffffffff166108fc6006549081150290604051600060405180830381858888f19350505050158015610631573d6000803e3d6000fd5b506001600860146101000a81548160ff021916908315150217905550505050565b600860149054906101000a900460ff161561066c57600080fd5b6000341161067957600080fd5b34600460003373ffffffffffffffffffffffffffffffffffffffff1673ffffffffffffffffffffffffffffffffffffffff16815260200190815260200160002060000160008282546106cb9190611b57565b9250508190555034600660008282546106e49190611b57565b925050819055507ff556991011e831bcfac4f406d547e5e32cdd98267efab83935230d5f8d02c4463334600460003373ffffffffffffffffffffffffffffffffffffffff1673ffffffffffffffffffffffffffffffffffffffff168152602001908152602001600020600001546006546040516107649493929190611bbc565b60405180910390a16107967fbc7cd1906cf807c8f89dc868f0a8d55007c0e0aaaf7b083aeb000f5f5fc79d1533610fd9565b565b60075481565b600080600084815260200190815260200160002060000160008373ffffffffffffffffffffffffffffffffffffffff1673ffffffffffffffffffffffffffffffffffffffff16815260200190815260200160002060009054906101000a900460ff16905092915050565b6000801b81565b7fbc7cd1906cf807c8f89dc868f0a8d55007c0e0aaaf7b083aeb000f5f5fc79d1581565b600560009054906101000a900460ff1681565b60003390506108757fbc7cd1906cf807c8f89dc868f0a8d55007c0e0aaaf7b083aeb000f5f5fc79d158261079e565b6108b4576040517f08c379a00000000000000000000000000000000000000000000000000000000081526004016108ab90611c4d565b60405180910390fd5b60006108be610fe7565b602001519050600081600654600460008673ffffffffffffffffffffffffffffffffffffffff1673ffffffffffffffffffffffffffffffffffffffff168152602001908152602001600020600001546109179190611c9c565b6109219190611ccd565b90506000600460008573ffffffffffffffffffffffffffffffffffffffff1673ffffffffffffffffffffffffffffffffffffffff16815260200190815260200160002060010154826109739190611d27565b9050600081116109b8576040517f08c379a00000000000000000000000000000000000000000000000000000000081526004016109af90611da7565b60405180910390fd5b610a07308583600860009054906101000a900473ffffffffffffffffffffffffffffffffffffffff1673ffffffffffffffffffffffffffffffffffffffff16611063909392919063ffffffff16565b80600460008673ffffffffffffffffffffffffffffffffffffffff1673ffffffffffffffffffffffffffffffffffffffff1681526020019081526020016000206001016000828254610a599190611b57565b925050819055507f17fa61e1edcb52b7cde15506e02c61b67d96dce3ee6b1f753b6b63ad88f115138482600460008873ffffffffffffffffffffffffffffffffffffffff1673ffffffffffffffffffffffffffffffffffffffff16815260200190815260200160002060010154604051610ad593929190611e26565b60405180910390a150505050565b610aec82610461565b610afd81610af8610d6a565b610d72565b610b078383610eef565b505050565b7fb19546dff01e856fb3f010c267a7b1c60363cf8a4664e21cc89c26224620214e81565b610b5a7fb19546dff01e856fb3f010c267a7b1c60363cf8a4664e21cc89c26224620214e3361079e565b610b99576040517f08c379a0000000000000000000000000000000000000000000000000000000008152600401610b9090611ea9565b60405180910390fd5b6000610ba3610fe7565b60000151905060018001548111610bef576040517f08c379a0000000000000000000000000000000000000000000000000000000008152600401610be690611da7565b60405180910390fd5b6000600180015482610c019190611d27565b9050610c7730600160020160009054906101000a900473ffffffffffffffffffffffffffffffffffffffff1683600860009054906101000a900473ffffffffffffffffffffffffffffffffffffffff1673ffffffffffffffffffffffffffffffffffffffff16611063909392919063ffffffff16565b80600180016000828254610c8b9190611b57565b925050819055507f17fa61e1edcb52b7cde15506e02c61b67d96dce3ee6b1f753b6b63ad88f11513600160020160009054906101000a900473ffffffffffffffffffffffffffffffffffffffff16826001800154604051610cee93929190611ec9565b60405180910390a15050565b60065481565b60007f01ffc9a7000000000000000000000000000000000000000000000000000000007bffffffffffffffffffffffffffffffffffffffffffffffffffffffff1916827bffffffffffffffffffffffffffffffffffffffffffffffffffffffff1916149050919050565b600033905090565b610d7c828261079e565b610e0b57610da18173ffffffffffffffffffffffffffffffffffffffff1660146110ec565b610daf8360001c60206110ec565b604051602001610dc0929190612012565b6040516020818303038152906040526040517f08c379a0000000000000000000000000000000000000000000000000000000008152600401610e029190612085565b60405180910390fd5b5050565b610e19828261079e565b610eeb57600160008084815260200190815260200160002060000160008373ffffffffffffffffffffffffffffffffffffffff1673ffffffffffffffffffffffffffffffffffffffff16815260200190815260200160002060006101000a81548160ff021916908315150217905550610e90610d6a565b73ffffffffffffffffffffffffffffffffffffffff168173ffffffffffffffffffffffffffffffffffffffff16837f2f8788117e7eff1d82e926ec794901d17c78024a50270940304540a733656f0d60405160405180910390a45b5050565b610ef9828261079e565b15610fcc57600080600084815260200190815260200160002060000160008373ffffffffffffffffffffffffffffffffffffffff1673ffffffffffffffffffffffffffffffffffffffff16815260200190815260200160002060006101000a81548160ff021916908315150217905550610f71610d6a565b73ffffffffffffffffffffffffffffffffffffffff168173ffffffffffffffffffffffffffffffffffffffff16837ff6391f5c32d9c69d2a47ea670b442974b53935d1edc7fd64eb21e047a839171b60405160405180910390a45b5050565b60006001905090565b610fe38282610e0f565b5050565b610fef611664565b610ff7611664565b6000611001611328565b90506064600560009054906101000a900460ff16606461102191906120a7565b60ff168261102f9190611ccd565b6110399190611c9c565b8260000181815250508160000151816110529190611d27565b826020018181525050819250505090565b6110e6846323b872dd60e01b858585604051602401611084939291906120db565b604051602081830303815290604052907bffffffffffffffffffffffffffffffffffffffffffffffffffffffff19166020820180517bffffffffffffffffffffffffffffffffffffffffffffffffffffffff8381831617835250505050611344565b50505050565b6060600060028360026110ff9190611ccd565b6111099190611b57565b67ffffffffffffffff81111561112257611121611893565b5b6040519080825280601f01601f1916602001820160405280156111545781602001600182028036833780820191505090505b5090507f30000000000000000000000000000000000000000000000000000000000000008160008151811061118c5761118b612112565b5b60200101907effffffffffffffffffffffffffffffffffffffffffffffffffffffffffffff1916908160001a9053507f7800000000000000000000000000000000000000000000000000000000000000816001815181106111f0576111ef612112565b5b60200101907effffffffffffffffffffffffffffffffffffffffffffffffffffffffffffff1916908160001a905350600060018460026112309190611ccd565b61123a9190611b57565b90505b60018111156112da577f3031323334353637383961626364656600000000000000000000000000000000600f86166010811061127c5761127b612112565b5b1a60f81b82828151811061129357611292612112565b5b60200101907effffffffffffffffffffffffffffffffffffffffffffffffffffffffffffff1916908160001a905350600485901c9450806112d390612141565b905061123d565b506000841461131e576040517f08c379a0000000000000000000000000000000000000000000000000000000008152600401611315906121b7565b60405180910390fd5b8091505092915050565b600060075461133561140b565b61133f9190611b57565b905090565b60006113a6826040518060400160405280602081526020017f5361666545524332303a206c6f772d6c6576656c2063616c6c206661696c65648152508573ffffffffffffffffffffffffffffffffffffffff166114ae9092919063ffffffff16565b905060008151111561140657808060200190518101906113c69190612203565b611405576040517f08c379a00000000000000000000000000000000000000000000000000000000081526004016113fc906122a2565b60405180910390fd5b5b505050565b6000600860009054906101000a900473ffffffffffffffffffffffffffffffffffffffff1673ffffffffffffffffffffffffffffffffffffffff166370a08231306040518263ffffffff1660e01b815260040161146891906122c2565b602060405180830381865afa158015611485573d6000803e3d6000fd5b505050506040513d601f19601f820116820180604052508101906114a99190612309565b905090565b60606114bd84846000856114c6565b90509392505050565b60608247101561150b576040517f08c379a0000000000000000000000000000000000000000000000000000000008152600401611502906123a8565b60405180910390fd5b611514856115da565b611553576040517f08c379a000000000000000000000000000000000000000000000000000000000815260040161154a90612414565b60405180910390fd5b6000808673ffffffffffffffffffffffffffffffffffffffff16858760405161157c919061247b565b60006040518083038185875af1925050503d80600081146115b9576040519150601f19603f3d011682016040523d82523d6000602084013e6115be565b606091505b50915091506115ce8282866115fd565b92505050949350505050565b6000808273ffffffffffffffffffffffffffffffffffffffff163b119050919050565b6060831561160d5782905061165d565b6000835111156116205782518084602001fd5b816040517f08c379a00000000000000000000000000000000000000000000000000000000081526004016116549190612085565b60405180910390fd5b9392505050565b604051806040016040528060008152602001600081525090565b6000604051905090565b600080fd5b600080fd5b60007fffffffff0000000000000000000000000000000000000000000000000000000082169050919050565b6116c781611692565b81146116d257600080fd5b50565b6000813590506116e4816116be565b92915050565b600060208284031215611700576116ff611688565b5b600061170e848285016116d5565b91505092915050565b60008115159050919050565b61172c81611717565b82525050565b60006020820190506117476000830184611723565b92915050565b6000819050919050565b6117608161174d565b82525050565b600060208201905061177b6000830184611757565b92915050565b61178a8161174d565b811461179557600080fd5b50565b6000813590506117a781611781565b92915050565b6000602082840312156117c3576117c2611688565b5b60006117d184828501611798565b91505092915050565b600073ffffffffffffffffffffffffffffffffffffffff82169050919050565b6000611805826117da565b9050919050565b611815816117fa565b811461182057600080fd5b50565b6000813590506118328161180c565b92915050565b6000806040838503121561184f5761184e611688565b5b600061185d85828601611798565b925050602061186e85828601611823565b9150509250929050565b600080fd5b600080fd5b6000601f19601f8301169050919050565b7f4e487b7100000000000000000000000000000000000000000000000000000000600052604160045260246000fd5b6118cb82611882565b810181811067ffffffffffffffff821117156118ea576118e9611893565b5b80604052505050565b60006118fd61167e565b905061190982826118c2565b919050565b600067ffffffffffffffff82111561192957611928611893565b5b61193282611882565b9050602081019050919050565b82818337600083830152505050565b600061196161195c8461190e565b6118f3565b90508281526020810184848401111561197d5761197c61187d565b5b61198884828561193f565b509392505050565b600082601f8301126119a5576119a4611878565b5b81356119b584826020860161194e565b91505092915050565b600080604083850312156119d5576119d4611688565b5b600083013567ffffffffffffffff8111156119f3576119f261168d565b5b6119ff85828601611990565b9250506020611a1085828601611823565b9150509250929050565b6000819050919050565b611a2d81611a1a565b82525050565b6000602082019050611a486000830184611a24565b92915050565b600060ff82169050919050565b611a6481611a4e565b82525050565b6000602082019050611a7f6000830184611a5b565b92915050565b600082825260208201905092915050565b7f416363657373436f6e74726f6c3a2063616e206f6e6c792072656e6f756e636560008201527f20726f6c657320666f722073656c660000000000000000000000000000000000602082015250565b6000611af2602f83611a85565b9150611afd82611a96565b604082019050919050565b60006020820190508181036000830152611b2181611ae5565b9050919050565b7f4e487b7100000000000000000000000000000000000000000000000000000000600052601160045260246000fd5b6000611b6282611a1a565b9150611b6d83611a1a565b9250827fffffffffffffffffffffffffffffffffffffffffffffffffffffffffffffffff03821115611ba257611ba1611b28565b5b828201905092915050565b611bb6816117fa565b82525050565b6000608082019050611bd16000830187611bad565b611bde6020830186611a24565b611beb6040830185611a24565b611bf86060830184611a24565b95945050505050565b7f43616c6c6572206973206e6f7420612068756e74657200000000000000000000600082015250565b6000611c37601683611a85565b9150611c4282611c01565b602082019050919050565b60006020820190508181036000830152611c6681611c2a565b9050919050565b7f4e487b7100000000000000000000000000000000000000000000000000000000600052601260045260246000fd5b6000611ca782611a1a565b9150611cb283611a1a565b925082611cc257611cc1611c6d565b5b828204905092915050565b6000611cd882611a1a565b9150611ce383611a1a565b9250817fffffffffffffffffffffffffffffffffffffffffffffffffffffffffffffffff0483118215151615611d1c57611d1b611b28565b5b828202905092915050565b6000611d3282611a1a565b9150611d3d83611a1a565b925082821015611d5057611d4f611b28565b5b828203905092915050565b7f4e6f20726f79616c7469657320746f2077697468647261770000000000000000600082015250565b6000611d91601883611a85565b9150611d9c82611d5b565b602082019050919050565b60006020820190508181036000830152611dc081611d84565b9050919050565b6000819050919050565b6000611dec611de7611de2846117da565b611dc7565b6117da565b9050919050565b6000611dfe82611dd1565b9050919050565b6000611e1082611df3565b9050919050565b611e2081611e05565b82525050565b6000606082019050611e3b6000830186611e17565b611e486020830185611a24565b611e556040830184611a24565b949350505050565b7f43616c6c6572206973206e6f7420616e206f776e657200000000000000000000600082015250565b6000611e93601683611a85565b9150611e9e82611e5d565b602082019050919050565b60006020820190508181036000830152611ec281611e86565b9050919050565b6000606082019050611ede6000830186611bad565b611eeb6020830185611a24565b611ef86040830184611a24565b949350505050565b600081905092915050565b7f416363657373436f6e74726f6c3a206163636f756e7420000000000000000000600082015250565b6000611f41601783611f00565b9150611f4c82611f0b565b601782019050919050565b600081519050919050565b60005b83811015611f80578082015181840152602081019050611f65565b83811115611f8f576000848401525b50505050565b6000611fa082611f57565b611faa8185611f00565b9350611fba818560208601611f62565b80840191505092915050565b7f206973206d697373696e6720726f6c6520000000000000000000000000000000600082015250565b6000611ffc601183611f00565b915061200782611fc6565b601182019050919050565b600061201d82611f34565b91506120298285611f95565b915061203482611fef565b91506120408284611f95565b91508190509392505050565b600061205782611f57565b6120618185611a85565b9350612071818560208601611f62565b61207a81611882565b840191505092915050565b6000602082019050818103600083015261209f818461204c565b905092915050565b60006120b282611a4e565b91506120bd83611a4e565b9250828210156120d0576120cf611b28565b5b828203905092915050565b60006060820190506120f06000830186611bad565b6120fd6020830185611bad565b61210a6040830184611a24565b949350505050565b7f4e487b7100000000000000000000000000000000000000000000000000000000600052603260045260246000fd5b600061214c82611a1a565b915060008214156121605761215f611b28565b5b600182039050919050565b7f537472696e67733a20686578206c656e67746820696e73756666696369656e74600082015250565b60006121a1602083611a85565b91506121ac8261216b565b602082019050919050565b600060208201905081810360008301526121d081612194565b9050919050565b6121e081611717565b81146121eb57600080fd5b50565b6000815190506121fd816121d7565b92915050565b60006020828403121561221957612218611688565b5b6000612227848285016121ee565b91505092915050565b7f5361666545524332303a204552433230206f7065726174696f6e20646964206e60008201527f6f74207375636365656400000000000000000000000000000000000000000000602082015250565b600061228c602a83611a85565b915061229782612230565b604082019050919050565b600060208201905081810360008301526122bb8161227f565b9050919050565b60006020820190506122d76000830184611bad565b92915050565b6122e681611a1a565b81146122f157600080fd5b50565b600081519050612303816122dd565b92915050565b60006020828403121561231f5761231e611688565b5b600061232d848285016122f4565b91505092915050565b7f416464726573733a20696e73756666696369656e742062616c616e636520666f60008201527f722063616c6c0000000000000000000000000000000000000000000000000000602082015250565b6000612392602683611a85565b915061239d82612336565b604082019050919050565b600060208201905081810360008301526123c181612385565b9050919050565b7f416464726573733a2063616c6c20746f206e6f6e2d636f6e7472616374000000600082015250565b60006123fe601d83611a85565b9150612409826123c8565b602082019050919050565b6000602082019050818103600083015261242d816123f1565b9050919050565b600081519050919050565b600081905092915050565b600061245582612434565b61245f818561243f565b935061246f818560208601611f62565b80840191505092915050565b6000612487828461244a565b91508190509291505056fea264697066735822122036e823571509f60de9aa122cf750b2e5b481d2e14fe77221220e37dfb120419364736f6c634300080a0033a2646970667358221220205368e1495f57c3dfdaf8ca8c5f1f525a318049e92971ca0bc4939246965c1964736f6c634300080a0033",
  "linkReferences": {},
  "deployedLinkReferences": {}
}