{
  "_format": "hh-sol-artifact-1",
  "contractName": "HuntedAccount",
  "sourceName": "contracts/HuntedAccount.sol",
  "abi": [
    {
      "inputs": [
        {
          "internalType": "address",
          "name": "lensHub",
          "type": "address"
        },
        {
          "internalType": "address",
          "name": "mockProfileCreationProxy",
          "type": "address"
        },
        {
          "internalType": "address",
          "name": "feeFollowModule",
          "type": "address"
        },
        {
          "internalType": "address",
          "name": "twitterVerifier",
          "type": "address"
        },
        {
          "internalType": "string",
          "name": "_twitterProfile",
          "type": "string"
        },
        {
          "internalType": "string",
          "name": "_challenge",
          "type": "string"
        },
        {
          "internalType": "uint8",
          "name": "_royaltyFee",
          "type": "uint8"
        }
      ],
      "stateMutability": "nonpayable",
      "type": "constructor"
    },
    {
      "anonymous": false,
      "inputs": [
        {
          "indexed": true,
          "internalType": "bytes32",
          "name": "role",
          "type": "bytes32"
        },
        {
          "indexed": true,
          "internalType": "bytes32",
          "name": "previousAdminRole",
          "type": "bytes32"
        },
        {
          "indexed": true,
          "internalType": "bytes32",
          "name": "newAdminRole",
          "type": "bytes32"
        }
      ],
      "name": "RoleAdminChanged",
      "type": "event"
    },
    {
      "anonymous": false,
      "inputs": [
        {
          "indexed": true,
          "internalType": "bytes32",
          "name": "role",
          "type": "bytes32"
        },
        {
          "indexed": true,
          "internalType": "address",
          "name": "account",
          "type": "address"
        },
        {
          "indexed": true,
          "internalType": "address",
          "name": "sender",
          "type": "address"
        }
      ],
      "name": "RoleGranted",
      "type": "event"
    },
    {
      "anonymous": false,
      "inputs": [
        {
          "indexed": true,
          "internalType": "bytes32",
          "name": "role",
          "type": "bytes32"
        },
        {
          "indexed": true,
          "internalType": "address",
          "name": "account",
          "type": "address"
        },
        {
          "indexed": true,
          "internalType": "address",
          "name": "sender",
          "type": "address"
        }
      ],
      "name": "RoleRevoked",
      "type": "event"
    },
    {
      "anonymous": false,
      "inputs": [
        {
          "indexed": false,
          "internalType": "address",
          "name": "_withdrawer",
          "type": "address"
        },
        {
          "indexed": false,
          "internalType": "uint256",
          "name": "_withdrawnAmount",
          "type": "uint256"
        },
        {
          "indexed": false,
          "internalType": "uint256",
          "name": "_allTimeWithdrawnAmount",
          "type": "uint256"
        }
      ],
      "name": "RoyaltiesWithdrawn",
      "type": "event"
    },
    {
      "anonymous": false,
      "inputs": [
        {
          "indexed": false,
          "internalType": "address",
          "name": "_hunter",
          "type": "address"
        },
        {
          "indexed": false,
          "internalType": "uint256",
          "name": "_hunterAmountStaked",
          "type": "uint256"
        },
        {
          "indexed": false,
          "internalType": "uint256",
          "name": "_hunterTotalAmountStaked",
          "type": "uint256"
        },
        {
          "indexed": false,
          "internalType": "uint256",
          "name": "_totalAmountStaked",
          "type": "uint256"
        }
      ],
      "name": "Stake",
      "type": "event"
    },
    {
      "inputs": [],
      "name": "DEFAULT_ADMIN_ROLE",
      "outputs": [
        {
          "internalType": "bytes32",
          "name": "",
          "type": "bytes32"
        }
      ],
      "stateMutability": "view",
      "type": "function"
    },
    {
      "inputs": [],
      "name": "HUNTER_ROLE",
      "outputs": [
        {
          "internalType": "bytes32",
          "name": "",
          "type": "bytes32"
        }
      ],
      "stateMutability": "view",
      "type": "function"
    },
    {
      "inputs": [],
      "name": "INITIATOR_ROLE",
      "outputs": [
        {
          "internalType": "bytes32",
          "name": "",
          "type": "bytes32"
        }
      ],
      "stateMutability": "view",
      "type": "function"
    },
    {
      "inputs": [],
      "name": "OWNER_ROLE",
      "outputs": [
        {
          "internalType": "bytes32",
          "name": "",
          "type": "bytes32"
        }
      ],
      "stateMutability": "view",
      "type": "function"
    },
    {
      "inputs": [
        {
          "internalType": "uint256",
          "name": "followFee",
          "type": "uint256"
        },
        {
          "internalType": "address",
          "name": "feesCurrency",
          "type": "address"
        }
      ],
      "name": "claimProfile",
      "outputs": [],
      "stateMutability": "nonpayable",
      "type": "function"
    },
    {
      "inputs": [
        {
          "internalType": "bytes32",
          "name": "role",
          "type": "bytes32"
        }
      ],
      "name": "getRoleAdmin",
      "outputs": [
        {
          "internalType": "bytes32",
          "name": "",
          "type": "bytes32"
        }
      ],
      "stateMutability": "view",
      "type": "function"
    },
    {
      "inputs": [
        {
          "internalType": "bytes32",
          "name": "role",
          "type": "bytes32"
        },
        {
          "internalType": "address",
          "name": "account",
          "type": "address"
        }
      ],
      "name": "grantRole",
      "outputs": [],
      "stateMutability": "nonpayable",
      "type": "function"
    },
    {
      "inputs": [
        {
          "internalType": "bytes32",
          "name": "role",
          "type": "bytes32"
        },
        {
          "internalType": "address",
          "name": "account",
          "type": "address"
        }
      ],
      "name": "hasRole",
      "outputs": [
        {
          "internalType": "bool",
          "name": "",
          "type": "bool"
        }
      ],
      "stateMutability": "view",
      "type": "function"
    },
    {
      "inputs": [
        {
          "internalType": "bytes32",
          "name": "role",
          "type": "bytes32"
        },
        {
          "internalType": "address",
          "name": "account",
          "type": "address"
        }
      ],
      "name": "renounceRole",
      "outputs": [],
      "stateMutability": "nonpayable",
      "type": "function"
    },
    {
      "inputs": [
        {
          "internalType": "bytes32",
          "name": "role",
          "type": "bytes32"
        },
        {
          "internalType": "address",
          "name": "account",
          "type": "address"
        }
      ],
      "name": "revokeRole",
      "outputs": [],
      "stateMutability": "nonpayable",
      "type": "function"
    },
    {
      "inputs": [],
      "name": "royaltyFee",
      "outputs": [
        {
          "internalType": "uint8",
          "name": "",
          "type": "uint8"
        }
      ],
      "stateMutability": "view",
      "type": "function"
    },
    {
      "inputs": [],
      "name": "stake",
      "outputs": [],
      "stateMutability": "payable",
      "type": "function"
    },
    {
      "inputs": [
        {
          "internalType": "bytes4",
          "name": "interfaceId",
          "type": "bytes4"
        }
      ],
      "name": "supportsInterface",
      "outputs": [
        {
          "internalType": "bool",
          "name": "",
          "type": "bool"
        }
      ],
      "stateMutability": "view",
      "type": "function"
    },
    {
      "inputs": [],
      "name": "totalAmountStaked",
      "outputs": [
        {
          "internalType": "uint256",
          "name": "",
          "type": "uint256"
        }
      ],
      "stateMutability": "view",
      "type": "function"
    },
    {
      "inputs": [],
      "name": "totalRoyaltiesWithdrawn",
      "outputs": [
        {
          "internalType": "uint256",
          "name": "",
          "type": "uint256"
        }
      ],
      "stateMutability": "view",
      "type": "function"
    },
    {
      "inputs": [
        {
          "internalType": "string",
          "name": "tweetId",
          "type": "string"
        }
      ],
      "name": "verifyProfileOwner",
      "outputs": [],
      "stateMutability": "nonpayable",
      "type": "function"
    },
    {
      "inputs": [],
      "name": "withdrawHunterRewards",
      "outputs": [],
      "stateMutability": "nonpayable",
      "type": "function"
    },
    {
      "inputs": [],
      "name": "withdrawOwnerRewards",
      "outputs": [],
      "stateMutability": "nonpayable",
      "type": "function"
    }
  ],
  "bytecode": "0x6101006040523480156200001257600080fd5b50604051620036b6380380620036b68339818101604052810190620000389190620008a0565b8673ffffffffffffffffffffffffffffffffffffffff1660808173ffffffffffffffffffffffffffffffffffffffff16815250508573ffffffffffffffffffffffffffffffffffffffff1660a08173ffffffffffffffffffffffffffffffffffffffff16815250508473ffffffffffffffffffffffffffffffffffffffff1660c08173ffffffffffffffffffffffffffffffffffffffff16815250508373ffffffffffffffffffffffffffffffffffffffff1660e08173ffffffffffffffffffffffffffffffffffffffff16815250508160059080519060200190620001209291906200054e565b50600060098190555080600860006101000a81548160ff021916908360ff1602179055506000600b60146101000a81548160ff02191690831515021790555062000169620005df565b30816000019073ffffffffffffffffffffffffffffffffffffffff16908173ffffffffffffffffffffffffffffffffffffffff16815250508381602001819052506000816060019073ffffffffffffffffffffffffffffffffffffffff16908173ffffffffffffffffffffffffffffffffffffffff168152505060a05173ffffffffffffffffffffffffffffffffffffffff166307e5f948826040518263ffffffff1660e01b815260040162000220919062000b06565b600060405180830381600087803b1580156200023b57600080fd5b505af115801562000250573d6000803e3d6000fd5b50505050600060805173ffffffffffffffffffffffffffffffffffffffff166320fa728a600180016040518263ffffffff1660e01b815260040162000296919062000c41565b602060405180830381865afa158015620002b4573d6000803e3d6000fd5b505050506040513d601f19601f82011682018060405250810190620002da919062000ca0565b9050604051806080016040528082815260200186815260200160008152602001600073ffffffffffffffffffffffffffffffffffffffff1681525060016000820151816000015560208201518160010190805190602001906200033f9291906200054e565b506040820151816002015560608201518160030160006101000a81548173ffffffffffffffffffffffffffffffffffffffff021916908373ffffffffffffffffffffffffffffffffffffffff160217905550905050620003c67f6b8b15f1c11543d8280deaa7c24d12fffba6a357e4428e8c43e4234790186bff33620003d560201b60201c565b50505050505050505062000cd2565b620003e78282620003eb60201b60201c565b5050565b620003fd8282620004dc60201b60201c565b620004d857600160008084815260200190815260200160002060000160008373ffffffffffffffffffffffffffffffffffffffff1673ffffffffffffffffffffffffffffffffffffffff16815260200190815260200160002060006101000a81548160ff0219169083151502179055506200047d6200054660201b60201c565b73ffffffffffffffffffffffffffffffffffffffff168173ffffffffffffffffffffffffffffffffffffffff16837f2f8788117e7eff1d82e926ec794901d17c78024a50270940304540a733656f0d60405160405180910390a45b5050565b600080600084815260200190815260200160002060000160008373ffffffffffffffffffffffffffffffffffffffff1673ffffffffffffffffffffffffffffffffffffffff16815260200190815260200160002060009054906101000a900460ff16905092915050565b600033905090565b8280546200055c9062000b59565b90600052602060002090601f016020900481019282620005805760008555620005cc565b82601f106200059b57805160ff1916838001178555620005cc565b82800160010185558215620005cc579182015b82811115620005cb578251825591602001919060010190620005ae565b5b509050620005db919062000641565b5090565b6040518060c00160405280600073ffffffffffffffffffffffffffffffffffffffff1681526020016060815260200160608152602001600073ffffffffffffffffffffffffffffffffffffffff16815260200160608152602001606081525090565b5b808211156200065c57600081600090555060010162000642565b5090565b6000604051905090565b600080fd5b600080fd5b600073ffffffffffffffffffffffffffffffffffffffff82169050919050565b6000620006a18262000674565b9050919050565b620006b38162000694565b8114620006bf57600080fd5b50565b600081519050620006d381620006a8565b92915050565b600080fd5b600080fd5b6000601f19601f8301169050919050565b7f4e487b7100000000000000000000000000000000000000000000000000000000600052604160045260246000fd5b6200072e82620006e3565b810181811067ffffffffffffffff8211171562000750576200074f620006f4565b5b80604052505050565b60006200076562000660565b905062000773828262000723565b919050565b600067ffffffffffffffff821115620007965762000795620006f4565b5b620007a182620006e3565b9050602081019050919050565b60005b83811015620007ce578082015181840152602081019050620007b1565b83811115620007de576000848401525b50505050565b6000620007fb620007f58462000778565b62000759565b9050828152602081018484840111156200081a5762000819620006de565b5b62000827848285620007ae565b509392505050565b600082601f830112620008475762000846620006d9565b5b815162000859848260208601620007e4565b91505092915050565b600060ff82169050919050565b6200087a8162000862565b81146200088657600080fd5b50565b6000815190506200089a816200086f565b92915050565b600080600080600080600060e0888a031215620008c257620008c16200066a565b5b6000620008d28a828b01620006c2565b9750506020620008e58a828b01620006c2565b9650506040620008f88a828b01620006c2565b95505060606200090b8a828b01620006c2565b945050608088015167ffffffffffffffff8111156200092f576200092e6200066f565b5b6200093d8a828b016200082f565b93505060a088015167ffffffffffffffff8111156200096157620009606200066f565b5b6200096f8a828b016200082f565b92505060c0620009828a828b0162000889565b91505092959891949750929550565b6200099c8162000694565b82525050565b600081519050919050565b600082825260208201905092915050565b6000620009cb82620009a2565b620009d78185620009ad565b9350620009e9818560208601620007ae565b620009f481620006e3565b840191505092915050565b600081519050919050565b600082825260208201905092915050565b600062000a2882620009ff565b62000a34818562000a0a565b935062000a46818560208601620007ae565b62000a5181620006e3565b840191505092915050565b600060c08301600083015162000a76600086018262000991565b506020830151848203602086015262000a908282620009be565b9150506040830151848203604086015262000aac8282620009be565b915050606083015162000ac3606086018262000991565b506080830151848203608086015262000add828262000a1b565b91505060a083015184820360a086015262000af98282620009be565b9150508091505092915050565b6000602082019050818103600083015262000b22818462000a5c565b905092915050565b7f4e487b7100000000000000000000000000000000000000000000000000000000600052602260045260246000fd5b6000600282049050600182168062000b7257607f821691505b6020821081141562000b895762000b8862000b2a565b5b50919050565b600082825260208201905092915050565b60008190508160005260206000209050919050565b6000815462000bc48162000b59565b62000bd0818662000b8f565b9450600182166000811462000bee576001811462000c015762000c38565b60ff198316865260208601935062000c38565b62000c0c8562000ba0565b60005b8381101562000c305781548189015260018201915060208101905062000c0f565b808801955050505b50505092915050565b6000602082019050818103600083015262000c5d818462000bb5565b905092915050565b6000819050919050565b62000c7a8162000c65565b811462000c8657600080fd5b50565b60008151905062000c9a8162000c6f565b92915050565b60006020828403121562000cb95762000cb86200066a565b5b600062000cc98482850162000c89565b91505092915050565b60805160a05160c05160e0516129a662000d106000396000818161094301526111a1015260006107ae015260005050600061076c01526129a66000f3fe6080604052600436106101095760003560e01c8063a217fddf11610095578063cbcc29c611610064578063cbcc29c61461034a578063d547741f14610361578063e58378bb1461038a578063ee991b5e146103b5578063fe961f61146103cc57610109565b8063a217fddf146102a0578063a98e0bf4146102cb578063b25a23e1146102f6578063b8997a971461031f57610109565b806336568abe116100dc57806336568abe146101dc5780633a4b66f1146102055780634350fbc71461020f5780634a42a55d1461023a57806391d148541461026357610109565b806301ffc9a71461010e5780631990e9791461014b578063248a9ca3146101765780632f2ff15d146101b3575b600080fd5b34801561011a57600080fd5b5061013560048036038101906101309190611943565b6103f7565b604051610142919061198b565b60405180910390f35b34801561015757600080fd5b50610160610471565b60405161016d91906119bf565b60405180910390f35b34801561018257600080fd5b5061019d60048036038101906101989190611a06565b610495565b6040516101aa91906119bf565b60405180910390f35b3480156101bf57600080fd5b506101da60048036038101906101d59190611a91565b6104b4565b005b3480156101e857600080fd5b5061020360048036038101906101fe9190611a91565b6104dd565b005b61020d610560565b005b34801561021b57600080fd5b506102246106a6565b6040516102319190611aea565b60405180910390f35b34801561024657600080fd5b50610261600480360381019061025c9190611b31565b6106ac565b005b34801561026f57600080fd5b5061028a60048036038101906102859190611a91565b6108ac565b604051610297919061198b565b60405180910390f35b3480156102ac57600080fd5b506102b5610916565b6040516102c291906119bf565b60405180910390f35b3480156102d757600080fd5b506102e061091d565b6040516102ed91906119bf565b60405180910390f35b34801561030257600080fd5b5061031d60048036038101906103189190611cb7565b610941565b005b34801561032b57600080fd5b506103346109ee565b6040516103419190611d1c565b60405180910390f35b34801561035657600080fd5b5061035f610a01565b005b34801561036d57600080fd5b5061038860048036038101906103839190611a91565b610c9e565b005b34801561039657600080fd5b5061039f610cc7565b6040516103ac91906119bf565b60405180910390f35b3480156103c157600080fd5b506103ca610ceb565b005b3480156103d857600080fd5b506103e1610eb9565b6040516103ee9190611aea565b60405180910390f35b60007f7965db0b000000000000000000000000000000000000000000000000000000007bffffffffffffffffffffffffffffffffffffffffffffffffffffffff1916827bffffffffffffffffffffffffffffffffffffffffffffffffffffffff1916148061046a575061046982610ebf565b5b9050919050565b7f6b8b15f1c11543d8280deaa7c24d12fffba6a357e4428e8c43e4234790186bff81565b6000806000838152602001908152602001600020600101549050919050565b6104bd82610495565b6104ce816104c9610f29565b610f31565b6104d88383610fce565b505050565b6104e5610f29565b73ffffffffffffffffffffffffffffffffffffffff168173ffffffffffffffffffffffffffffffffffffffff1614610552576040517f08c379a000000000000000000000000000000000000000000000000000000000815260040161054990611dba565b60405180910390fd5b61055c82826110ae565b5050565b600b60149054906101000a900460ff161561057a57600080fd5b6000341161058757600080fd5b34600760003373ffffffffffffffffffffffffffffffffffffffff1673ffffffffffffffffffffffffffffffffffffffff16815260200190815260200160002060000160008282546105d99190611e09565b9250508190555034600960008282546105f29190611e09565b925050819055507ff556991011e831bcfac4f406d547e5e32cdd98267efab83935230d5f8d02c4463334600760003373ffffffffffffffffffffffffffffffffffffffff1673ffffffffffffffffffffffffffffffffffffffff168152602001908152602001600020600001546009546040516106729493929190611e6e565b60405180910390a16106a47fbc7cd1906cf807c8f89dc868f0a8d55007c0e0aaaf7b083aeb000f5f5fc79d153361118f565b565b600a5481565b6106b461119d565b6106bd57600080fd5b33600160030160006101000a81548173ffffffffffffffffffffffffffffffffffffffff021916908373ffffffffffffffffffffffffffffffffffffffff16021790555080600b60006101000a81548173ffffffffffffffffffffffffffffffffffffffff021916908373ffffffffffffffffffffffffffffffffffffffff160217905550600082823060405160200161075993929190611eb3565b60405160208183030381529060405290507f000000000000000000000000000000000000000000000000000000000000000073ffffffffffffffffffffffffffffffffffffffff16636dea40b36001600001547f0000000000000000000000000000000000000000000000000000000000000000846040518463ffffffff1660e01b81526004016107ec93929190611f72565b600060405180830381600087803b15801561080657600080fd5b505af115801561081a573d6000803e3d6000fd5b50505050600160030160009054906101000a900473ffffffffffffffffffffffffffffffffffffffff1673ffffffffffffffffffffffffffffffffffffffff166108fc6009549081150290604051600060405180830381858888f1935050505015801561088b573d6000803e3d6000fd5b506001600b60146101000a81548160ff021916908315150217905550505050565b600080600084815260200190815260200160002060000160008373ffffffffffffffffffffffffffffffffffffffff1673ffffffffffffffffffffffffffffffffffffffff16815260200190815260200160002060009054906101000a900460ff16905092915050565b6000801b81565b7fbc7cd1906cf807c8f89dc868f0a8d55007c0e0aaaf7b083aeb000f5f5fc79d1581565b7f000000000000000000000000000000000000000000000000000000000000000073ffffffffffffffffffffffffffffffffffffffff1663f12afb74600180018360056040518463ffffffff1660e01b81526004016109a2939291906120ea565b6020604051808303816000875af11580156109c1573d6000803e3d6000fd5b505050506040513d601f19601f820116820180604052508101906109e5919061214b565b60068190555050565b600860009054906101000a900460ff1681565b6000339050610a307fbc7cd1906cf807c8f89dc868f0a8d55007c0e0aaaf7b083aeb000f5f5fc79d15826108ac565b610a6f576040517f08c379a0000000000000000000000000000000000000000000000000000000008152600401610a66906121c4565b60405180910390fd5b6000610a79611240565b602001519050600081600954600760008673ffffffffffffffffffffffffffffffffffffffff1673ffffffffffffffffffffffffffffffffffffffff16815260200190815260200160002060000154610ad29190612213565b610adc9190612244565b90506000600760008573ffffffffffffffffffffffffffffffffffffffff1673ffffffffffffffffffffffffffffffffffffffff1681526020019081526020016000206001015482610b2e919061229e565b905060008111610b73576040517f08c379a0000000000000000000000000000000000000000000000000000000008152600401610b6a9061231e565b60405180910390fd5b610bc2308583600b60009054906101000a900473ffffffffffffffffffffffffffffffffffffffff1673ffffffffffffffffffffffffffffffffffffffff166112bc909392919063ffffffff16565b80600760008673ffffffffffffffffffffffffffffffffffffffff1673ffffffffffffffffffffffffffffffffffffffff1681526020019081526020016000206001016000828254610c149190611e09565b925050819055507f17fa61e1edcb52b7cde15506e02c61b67d96dce3ee6b1f753b6b63ad88f115138482600760008873ffffffffffffffffffffffffffffffffffffffff1673ffffffffffffffffffffffffffffffffffffffff16815260200190815260200160002060010154604051610c909392919061239d565b60405180910390a150505050565b610ca782610495565b610cb881610cb3610f29565b610f31565b610cc283836110ae565b505050565b7fb19546dff01e856fb3f010c267a7b1c60363cf8a4664e21cc89c26224620214e81565b610d157fb19546dff01e856fb3f010c267a7b1c60363cf8a4664e21cc89c26224620214e336108ac565b610d54576040517f08c379a0000000000000000000000000000000000000000000000000000000008152600401610d4b90612420565b60405180910390fd5b6000610d5e611240565b6000015190506001600201548111610dab576040517f08c379a0000000000000000000000000000000000000000000000000000000008152600401610da29061231e565b60405180910390fd5b600060016002015482610dbe919061229e565b9050610e3430600160030160009054906101000a900473ffffffffffffffffffffffffffffffffffffffff1683600b60009054906101000a900473ffffffffffffffffffffffffffffffffffffffff1673ffffffffffffffffffffffffffffffffffffffff166112bc909392919063ffffffff16565b8060016002016000828254610e499190611e09565b925050819055507f17fa61e1edcb52b7cde15506e02c61b67d96dce3ee6b1f753b6b63ad88f11513600160030160009054906101000a900473ffffffffffffffffffffffffffffffffffffffff1682600160020154604051610ead93929190612440565b60405180910390a15050565b60095481565b60007f01ffc9a7000000000000000000000000000000000000000000000000000000007bffffffffffffffffffffffffffffffffffffffffffffffffffffffff1916827bffffffffffffffffffffffffffffffffffffffffffffffffffffffff1916149050919050565b600033905090565b610f3b82826108ac565b610fca57610f608173ffffffffffffffffffffffffffffffffffffffff166014611345565b610f6e8360001c6020611345565b604051602001610f7f92919061254b565b6040516020818303038152906040526040517f08c379a0000000000000000000000000000000000000000000000000000000008152600401610fc19190612585565b60405180910390fd5b5050565b610fd882826108ac565b6110aa57600160008084815260200190815260200160002060000160008373ffffffffffffffffffffffffffffffffffffffff1673ffffffffffffffffffffffffffffffffffffffff16815260200190815260200160002060006101000a81548160ff02191690831515021790555061104f610f29565b73ffffffffffffffffffffffffffffffffffffffff168173ffffffffffffffffffffffffffffffffffffffff16837f2f8788117e7eff1d82e926ec794901d17c78024a50270940304540a733656f0d60405160405180910390a45b5050565b6110b882826108ac565b1561118b57600080600084815260200190815260200160002060000160008373ffffffffffffffffffffffffffffffffffffffff1673ffffffffffffffffffffffffffffffffffffffff16815260200190815260200160002060006101000a81548160ff021916908315150217905550611130610f29565b73ffffffffffffffffffffffffffffffffffffffff168173ffffffffffffffffffffffffffffffffffffffff16837ff6391f5c32d9c69d2a47ea670b442974b53935d1edc7fd64eb21e047a839171b60405160405180910390a45b5050565b6111998282610fce565b5050565b60007f000000000000000000000000000000000000000000000000000000000000000073ffffffffffffffffffffffffffffffffffffffff1663add4c7846006546040518263ffffffff1660e01b81526004016111fa91906119bf565b602060405180830381865afa158015611217573d6000803e3d6000fd5b505050506040513d601f19601f8201168201806040525081019061123b91906125d3565b905090565b6112486118bd565b6112506118bd565b600061125a611581565b90506064600860009054906101000a900460ff16606461127a9190612600565b60ff16826112889190612244565b6112929190612213565b8260000181815250508160000151816112ab919061229e565b826020018181525050819250505090565b61133f846323b872dd60e01b8585856040516024016112dd93929190612634565b604051602081830303815290604052907bffffffffffffffffffffffffffffffffffffffffffffffffffffffff19166020820180517bffffffffffffffffffffffffffffffffffffffffffffffffffffffff838183161783525050505061159d565b50505050565b6060600060028360026113589190612244565b6113629190611e09565b67ffffffffffffffff81111561137b5761137a611b8c565b5b6040519080825280601f01601f1916602001820160405280156113ad5781602001600182028036833780820191505090505b5090507f3000000000000000000000000000000000000000000000000000000000000000816000815181106113e5576113e461266b565b5b60200101907effffffffffffffffffffffffffffffffffffffffffffffffffffffffffffff1916908160001a9053507f7800000000000000000000000000000000000000000000000000000000000000816001815181106114495761144861266b565b5b60200101907effffffffffffffffffffffffffffffffffffffffffffffffffffffffffffff1916908160001a905350600060018460026114899190612244565b6114939190611e09565b90505b6001811115611533577f3031323334353637383961626364656600000000000000000000000000000000600f8616601081106114d5576114d461266b565b5b1a60f81b8282815181106114ec576114eb61266b565b5b60200101907effffffffffffffffffffffffffffffffffffffffffffffffffffffffffffff1916908160001a905350600485901c94508061152c9061269a565b9050611496565b5060008414611577576040517f08c379a000000000000000000000000000000000000000000000000000000000815260040161156e90612710565b60405180910390fd5b8091505092915050565b6000600a5461158e611664565b6115989190611e09565b905090565b60006115ff826040518060400160405280602081526020017f5361666545524332303a206c6f772d6c6576656c2063616c6c206661696c65648152508573ffffffffffffffffffffffffffffffffffffffff166117079092919063ffffffff16565b905060008151111561165f578080602001905181019061161f91906125d3565b61165e576040517f08c379a0000000000000000000000000000000000000000000000000000000008152600401611655906127a2565b60405180910390fd5b5b505050565b6000600b60009054906101000a900473ffffffffffffffffffffffffffffffffffffffff1673ffffffffffffffffffffffffffffffffffffffff166370a08231306040518263ffffffff1660e01b81526004016116c191906127c2565b602060405180830381865afa1580156116de573d6000803e3d6000fd5b505050506040513d601f19601f8201168201806040525081019061170291906127f2565b905090565b6060611716848460008561171f565b90509392505050565b606082471015611764576040517f08c379a000000000000000000000000000000000000000000000000000000000815260040161175b90612891565b60405180910390fd5b61176d85611833565b6117ac576040517f08c379a00000000000000000000000000000000000000000000000000000000081526004016117a3906128fd565b60405180910390fd5b6000808673ffffffffffffffffffffffffffffffffffffffff1685876040516117d59190612959565b60006040518083038185875af1925050503d8060008114611812576040519150601f19603f3d011682016040523d82523d6000602084013e611817565b606091505b5091509150611827828286611856565b92505050949350505050565b6000808273ffffffffffffffffffffffffffffffffffffffff163b119050919050565b60608315611866578290506118b6565b6000835111156118795782518084602001fd5b816040517f08c379a00000000000000000000000000000000000000000000000000000000081526004016118ad9190612585565b60405180910390fd5b9392505050565b604051806040016040528060008152602001600081525090565b6000604051905090565b600080fd5b600080fd5b60007fffffffff0000000000000000000000000000000000000000000000000000000082169050919050565b611920816118eb565b811461192b57600080fd5b50565b60008135905061193d81611917565b92915050565b600060208284031215611959576119586118e1565b5b60006119678482850161192e565b91505092915050565b60008115159050919050565b61198581611970565b82525050565b60006020820190506119a0600083018461197c565b92915050565b6000819050919050565b6119b9816119a6565b82525050565b60006020820190506119d460008301846119b0565b92915050565b6119e3816119a6565b81146119ee57600080fd5b50565b600081359050611a00816119da565b92915050565b600060208284031215611a1c57611a1b6118e1565b5b6000611a2a848285016119f1565b91505092915050565b600073ffffffffffffffffffffffffffffffffffffffff82169050919050565b6000611a5e82611a33565b9050919050565b611a6e81611a53565b8114611a7957600080fd5b50565b600081359050611a8b81611a65565b92915050565b60008060408385031215611aa857611aa76118e1565b5b6000611ab6858286016119f1565b9250506020611ac785828601611a7c565b9150509250929050565b6000819050919050565b611ae481611ad1565b82525050565b6000602082019050611aff6000830184611adb565b92915050565b611b0e81611ad1565b8114611b1957600080fd5b50565b600081359050611b2b81611b05565b92915050565b60008060408385031215611b4857611b476118e1565b5b6000611b5685828601611b1c565b9250506020611b6785828601611a7c565b9150509250929050565b600080fd5b600080fd5b6000601f19601f8301169050919050565b7f4e487b7100000000000000000000000000000000000000000000000000000000600052604160045260246000fd5b611bc482611b7b565b810181811067ffffffffffffffff82111715611be357611be2611b8c565b5b80604052505050565b6000611bf66118d7565b9050611c028282611bbb565b919050565b600067ffffffffffffffff821115611c2257611c21611b8c565b5b611c2b82611b7b565b9050602081019050919050565b82818337600083830152505050565b6000611c5a611c5584611c07565b611bec565b905082815260208101848484011115611c7657611c75611b76565b5b611c81848285611c38565b509392505050565b600082601f830112611c9e57611c9d611b71565b5b8135611cae848260208601611c47565b91505092915050565b600060208284031215611ccd57611ccc6118e1565b5b600082013567ffffffffffffffff811115611ceb57611cea6118e6565b5b611cf784828501611c89565b91505092915050565b600060ff82169050919050565b611d1681611d00565b82525050565b6000602082019050611d316000830184611d0d565b92915050565b600082825260208201905092915050565b7f416363657373436f6e74726f6c3a2063616e206f6e6c792072656e6f756e636560008201527f20726f6c657320666f722073656c660000000000000000000000000000000000602082015250565b6000611da4602f83611d37565b9150611daf82611d48565b604082019050919050565b60006020820190508181036000830152611dd381611d97565b9050919050565b7f4e487b7100000000000000000000000000000000000000000000000000000000600052601160045260246000fd5b6000611e1482611ad1565b9150611e1f83611ad1565b9250827fffffffffffffffffffffffffffffffffffffffffffffffffffffffffffffffff03821115611e5457611e53611dda565b5b828201905092915050565b611e6881611a53565b82525050565b6000608082019050611e836000830187611e5f565b611e906020830186611adb565b611e9d6040830185611adb565b611eaa6060830184611adb565b95945050505050565b6000606082019050611ec86000830186611adb565b611ed56020830185611e5f565b611ee26040830184611e5f565b949350505050565b600081519050919050565b600082825260208201905092915050565b60005b83811015611f24578082015181840152602081019050611f09565b83811115611f33576000848401525b50505050565b6000611f4482611eea565b611f4e8185611ef5565b9350611f5e818560208601611f06565b611f6781611b7b565b840191505092915050565b6000606082019050611f876000830186611adb565b611f946020830185611e5f565b8181036040830152611fa68184611f39565b9050949350505050565b7f4e487b7100000000000000000000000000000000000000000000000000000000600052602260045260246000fd5b60006002820490506001821680611ff757607f821691505b6020821081141561200b5761200a611fb0565b5b50919050565b60008190508160005260206000209050919050565b6000815461203381611fdf565b61203d8186611d37565b94506001821660008114612058576001811461206a5761209d565b60ff198316865260208601935061209d565b61207385612011565b60005b8381101561209557815481890152600182019150602081019050612076565b808801955050505b50505092915050565b600081519050919050565b60006120bc826120a6565b6120c68185611d37565b93506120d6818560208601611f06565b6120df81611b7b565b840191505092915050565b600060608201905081810360008301526121048186612026565b9050818103602083015261211881856120b1565b9050818103604083015261212c8184612026565b9050949350505050565b600081519050612145816119da565b92915050565b600060208284031215612161576121606118e1565b5b600061216f84828501612136565b91505092915050565b7f43616c6c6572206973206e6f7420612068756e74657200000000000000000000600082015250565b60006121ae601683611d37565b91506121b982612178565b602082019050919050565b600060208201905081810360008301526121dd816121a1565b9050919050565b7f4e487b7100000000000000000000000000000000000000000000000000000000600052601260045260246000fd5b600061221e82611ad1565b915061222983611ad1565b925082612239576122386121e4565b5b828204905092915050565b600061224f82611ad1565b915061225a83611ad1565b9250817fffffffffffffffffffffffffffffffffffffffffffffffffffffffffffffffff048311821515161561229357612292611dda565b5b828202905092915050565b60006122a982611ad1565b91506122b483611ad1565b9250828210156122c7576122c6611dda565b5b828203905092915050565b7f4e6f20726f79616c7469657320746f2077697468647261770000000000000000600082015250565b6000612308601883611d37565b9150612313826122d2565b602082019050919050565b60006020820190508181036000830152612337816122fb565b9050919050565b6000819050919050565b600061236361235e61235984611a33565b61233e565b611a33565b9050919050565b600061237582612348565b9050919050565b60006123878261236a565b9050919050565b6123978161237c565b82525050565b60006060820190506123b2600083018661238e565b6123bf6020830185611adb565b6123cc6040830184611adb565b949350505050565b7f43616c6c6572206973206e6f7420616e206f776e657200000000000000000000600082015250565b600061240a601683611d37565b9150612415826123d4565b602082019050919050565b60006020820190508181036000830152612439816123fd565b9050919050565b60006060820190506124556000830186611e5f565b6124626020830185611adb565b61246f6040830184611adb565b949350505050565b600081905092915050565b7f416363657373436f6e74726f6c3a206163636f756e7420000000000000000000600082015250565b60006124b8601783612477565b91506124c382612482565b601782019050919050565b60006124d9826120a6565b6124e38185612477565b93506124f3818560208601611f06565b80840191505092915050565b7f206973206d697373696e6720726f6c6520000000000000000000000000000000600082015250565b6000612535601183612477565b9150612540826124ff565b601182019050919050565b6000612556826124ab565b915061256282856124ce565b915061256d82612528565b915061257982846124ce565b91508190509392505050565b6000602082019050818103600083015261259f81846120b1565b905092915050565b6125b081611970565b81146125bb57600080fd5b50565b6000815190506125cd816125a7565b92915050565b6000602082840312156125e9576125e86118e1565b5b60006125f7848285016125be565b91505092915050565b600061260b82611d00565b915061261683611d00565b92508282101561262957612628611dda565b5b828203905092915050565b60006060820190506126496000830186611e5f565b6126566020830185611e5f565b6126636040830184611adb565b949350505050565b7f4e487b7100000000000000000000000000000000000000000000000000000000600052603260045260246000fd5b60006126a582611ad1565b915060008214156126b9576126b8611dda565b5b600182039050919050565b7f537472696e67733a20686578206c656e67746820696e73756666696369656e74600082015250565b60006126fa602083611d37565b9150612705826126c4565b602082019050919050565b60006020820190508181036000830152612729816126ed565b9050919050565b7f5361666545524332303a204552433230206f7065726174696f6e20646964206e60008201527f6f74207375636365656400000000000000000000000000000000000000000000602082015250565b600061278c602a83611d37565b915061279782612730565b604082019050919050565b600060208201905081810360008301526127bb8161277f565b9050919050565b60006020820190506127d76000830184611e5f565b92915050565b6000815190506127ec81611b05565b92915050565b600060208284031215612808576128076118e1565b5b6000612816848285016127dd565b91505092915050565b7f416464726573733a20696e73756666696369656e742062616c616e636520666f60008201527f722063616c6c0000000000000000000000000000000000000000000000000000602082015250565b600061287b602683611d37565b91506128868261281f565b604082019050919050565b600060208201905081810360008301526128aa8161286e565b9050919050565b7f416464726573733a2063616c6c20746f206e6f6e2d636f6e7472616374000000600082015250565b60006128e7601d83611d37565b91506128f2826128b1565b602082019050919050565b60006020820190508181036000830152612916816128da565b9050919050565b600081905092915050565b600061293382611eea565b61293d818561291d565b935061294d818560208601611f06565b80840191505092915050565b60006129658284612928565b91508190509291505056fea264697066735822122087d5ce04a0d93c15d50e7f50efb78dea3b9823ff554b550e8e4b2cdd6edd14bd64736f6c634300080a0033",
  "linkReferences": {},
  "deployedLinkReferences": {}
}