{
  "_format": "hh-sol-artifact-1",
  "contractName": "TwitterVerifier",
  "sourceName": "contracts/TwitterVerifier.sol",
  "abi": [
    {
      "inputs": [
        {
          "internalType": "address",
          "name": "_oracle",
          "type": "address"
        },
        {
          "internalType": "bytes32",
          "name": "_jobId",
          "type": "bytes32"
        },
        {
          "internalType": "uint256",
          "name": "_fee",
          "type": "uint256"
        },
        {
          "internalType": "address",
          "name": "_link",
          "type": "address"
        }
      ],
      "stateMutability": "nonpayable",
      "type": "constructor"
    },
    {
      "anonymous": false,
      "inputs": [
        {
          "indexed": true,
          "internalType": "bytes32",
          "name": "id",
          "type": "bytes32"
        }
      ],
      "name": "ChainlinkCancelled",
      "type": "event"
    },
    {
      "anonymous": false,
      "inputs": [
        {
          "indexed": true,
          "internalType": "bytes32",
          "name": "id",
          "type": "bytes32"
        }
      ],
      "name": "ChainlinkFulfilled",
      "type": "event"
    },
    {
      "anonymous": false,
      "inputs": [
        {
          "indexed": true,
          "internalType": "bytes32",
          "name": "id",
          "type": "bytes32"
        }
      ],
      "name": "ChainlinkRequested",
      "type": "event"
    },
    {
      "anonymous": false,
      "inputs": [
        {
          "indexed": false,
          "internalType": "bytes32",
          "name": "requestId",
          "type": "bytes32"
        },
        {
          "indexed": false,
          "internalType": "address",
          "name": "accountContract",
          "type": "address"
        },
        {
          "indexed": false,
          "internalType": "bool",
          "name": "isVerified",
          "type": "bool"
        }
      ],
      "name": "VerificationCompleted",
      "type": "event"
    },
    {
      "anonymous": false,
      "inputs": [
        {
          "indexed": false,
          "internalType": "bytes32",
          "name": "requestId",
          "type": "bytes32"
        }
      ],
      "name": "VerificationStarted",
      "type": "event"
    },
    {
      "inputs": [
        {
          "internalType": "bytes32",
          "name": "_requestId",
          "type": "bytes32"
        },
        {
          "internalType": "bool",
          "name": "isVerified",
          "type": "bool"
        }
      ],
      "name": "fulfill",
      "outputs": [],
      "stateMutability": "nonpayable",
      "type": "function"
    },
    {
      "inputs": [
        {
          "internalType": "bytes32",
          "name": "requestId",
          "type": "bytes32"
        }
      ],
      "name": "getResult",
      "outputs": [
        {
          "internalType": "bool",
          "name": "",
          "type": "bool"
        }
      ],
      "stateMutability": "view",
      "type": "function"
    },
    {
      "inputs": [
        {
          "internalType": "bytes32",
          "name": "",
          "type": "bytes32"
        }
      ],
      "name": "verifiedProfiles",
      "outputs": [
        {
          "internalType": "address",
          "name": "accountContract",
          "type": "address"
        },
        {
          "internalType": "bool",
          "name": "isVerified",
          "type": "bool"
        }
      ],
      "stateMutability": "view",
      "type": "function"
    },
    {
      "inputs": [
        {
          "internalType": "string",
          "name": "username",
          "type": "string"
        },
        {
          "internalType": "string",
          "name": "tweetId",
          "type": "string"
        },
        {
          "internalType": "string",
          "name": "challenge",
          "type": "string"
        }
      ],
      "name": "verifyTweet",
      "outputs": [
        {
          "internalType": "bytes32",
          "name": "requestId",
          "type": "bytes32"
        }
      ],
      "stateMutability": "nonpayable",
      "type": "function"
    }
  ],
  "bytecode": "0x608060405260016004553480156200001657600080fd5b506040516200211c3803806200211c83398181016040528101906200003c9190620002af565b600073ffffffffffffffffffffffffffffffffffffffff168173ffffffffffffffffffffffffffffffffffffffff161415620000885762000082620000f360201b60201c565b6200009a565b62000099816200018b60201b60201c565b5b83600660006101000a81548173ffffffffffffffffffffffffffffffffffffffff021916908373ffffffffffffffffffffffffffffffffffffffff16021790555082600781905550816008819055505050505062000353565b6200018973c89bd4e1632d3a43cb03aaad5262cbe4038bc57173ffffffffffffffffffffffffffffffffffffffff166338cc48316040518163ffffffff1660e01b8152600401602060405180830381865afa15801562000157573d6000803e3d6000fd5b505050506040513d601f19601f820116820180604052508101906200017d919062000321565b6200018b60201b60201c565b565b80600260006101000a81548173ffffffffffffffffffffffffffffffffffffffff021916908373ffffffffffffffffffffffffffffffffffffffff16021790555050565b600080fd5b600073ffffffffffffffffffffffffffffffffffffffff82169050919050565b60006200020182620001d4565b9050919050565b6200021381620001f4565b81146200021f57600080fd5b50565b600081519050620002338162000208565b92915050565b6000819050919050565b6200024e8162000239565b81146200025a57600080fd5b50565b6000815190506200026e8162000243565b92915050565b6000819050919050565b620002898162000274565b81146200029557600080fd5b50565b600081519050620002a9816200027e565b92915050565b60008060008060808587031215620002cc57620002cb620001cf565b5b6000620002dc8782880162000222565b9450506020620002ef878288016200025d565b9350506040620003028782880162000298565b9250506060620003158782880162000222565b91505092959194509250565b6000602082840312156200033a5762000339620001cf565b5b60006200034a8482850162000222565b91505092915050565b611db980620003636000396000f3fe608060405234801561001057600080fd5b506004361061004c5760003560e01c8063ab16e3b614610051578063add4c78414610082578063f12afb74146100b2578063fd68990a146100e2575b600080fd5b61006b6004803603810190610066919061108e565b6100fe565b604051610079929190611117565b60405180910390f35b61009c6004803603810190610097919061108e565b61014f565b6040516100a99190611140565b60405180910390f35b6100cc60048036038101906100c791906112a1565b61017c565b6040516100d99190611357565b60405180910390f35b6100fc60048036038101906100f7919061139e565b61044b565b005b60096020528060005260406000206000915090508060000160009054906101000a900473ffffffffffffffffffffffffffffffffffffffff16908060000160149054906101000a900460ff16905082565b60006009600083815260200190815260200160002060000160149054906101000a900460ff169050919050565b6000806101936007543063fd68990a60e01b6105f4565b905060008484876040516020016101ac93929190611588565b60405160208183030381529060405290506102076040518060400160405280600381526020017f676574000000000000000000000000000000000000000000000000000000000081525082846106259092919063ffffffff16565b6102866040518060400160405280600481526020017f70617468000000000000000000000000000000000000000000000000000000008152506040518060400160405280600481526020017f6461746100000000000000000000000000000000000000000000000000000000815250846106259092919063ffffffff16565b6102d16040518060400160405280600581526020017f76616c75650000000000000000000000000000000000000000000000000000008152506001846106589092919063ffffffff16565b6103506040518060400160405280600881526020017f6f70657261746f720000000000000000000000000000000000000000000000008152506040518060400160405280600281526020017f6571000000000000000000000000000000000000000000000000000000000000815250846106259092919063ffffffff16565b6000610381600660009054906101000a900473ffffffffffffffffffffffffffffffffffffffff168460085461068b565b9050336009600083815260200190815260200160002060000160006101000a81548173ffffffffffffffffffffffffffffffffffffffff021916908373ffffffffffffffffffffffffffffffffffffffff16021790555060006009600083815260200190815260200160002060000160146101000a81548160ff0219169083151502179055507fa1af31e33181b52303c7c4e07a11f72a0d4d1382d0f53b167568720d98ae2cf1816040516104369190611357565b60405180910390a18093505050509392505050565b816005600082815260200190815260200160002060009054906101000a900473ffffffffffffffffffffffffffffffffffffffff1673ffffffffffffffffffffffffffffffffffffffff163373ffffffffffffffffffffffffffffffffffffffff16146104ed576040517f08c379a00000000000000000000000000000000000000000000000000000000081526004016104e49061165d565b60405180910390fd5b6005600082815260200190815260200160002060006101000a81549073ffffffffffffffffffffffffffffffffffffffff0219169055807f7cc135e0cebb02c3480ae5d74d377283180a2601f8f644edf7987b009316c63a60405160405180910390a2816009600085815260200190815260200160002060000160146101000a81548160ff0219169083151502179055507f97c9b29a58b5d7da659547427f1268ebbd60e66aa1d11950e653ef16b09a10f1836009600086815260200190815260200160002060000160009054906101000a900473ffffffffffffffffffffffffffffffffffffffff16846040516105e79392919061167d565b60405180910390a1505050565b6105fc610fbd565b610604610fbd565b61061b85858584610757909392919063ffffffff16565b9150509392505050565b61063c82846080015161080790919063ffffffff16565b61065381846080015161080790919063ffffffff16565b505050565b61066f82846080015161080790919063ffffffff16565b61068681846080015161082c90919063ffffffff16565b505050565b60008060045490506001816106a091906116ed565b6004819055506000634042994660e01b60008087600001513089604001518760018c60800151600001516040516024016106e19897969594939291906117e2565b604051602081830303815290604052907bffffffffffffffffffffffffffffffffffffffffffffffffffffffff19166020820180517bffffffffffffffffffffffffffffffffffffffffffffffffffffffff8381831617835250505050905061074c868386846108d9565b925050509392505050565b61075f610fbd565b61076f8560800151610100610a6e565b508385600001818152505082856020019073ffffffffffffffffffffffffffffffffffffffff16908173ffffffffffffffffffffffffffffffffffffffff16815250508185604001907bffffffffffffffffffffffffffffffffffffffffffffffffffffffff191690817bffffffffffffffffffffffffffffffffffffffffffffffffffffffff191681525050849050949350505050565b6108148260038351610ad8565b6108278183610c5d90919063ffffffff16565b505050565b7fffffffffffffffffffffffffffffffffffffffffffffffff00000000000000008112156108635761085e8282610c7f565b6108d5565b67ffffffffffffffff8113156108825761087d8282610cf6565b6108d4565b6000811261089b5761089682600083610ad8565b6108d3565b6108d2826001837fffffffffffffffffffffffffffffffffffffffffffffffffffffffffffffffff6108cd9190611871565b610ad8565b5b5b5b5050565b600030846040516020016108ee9291906119be565b604051602081830303815290604052805190602001209050846005600083815260200190815260200160002060006101000a81548173ffffffffffffffffffffffffffffffffffffffff021916908373ffffffffffffffffffffffffffffffffffffffff160217905550807fb5e6e01e79f91267dc17b4e6314d5d4d03593d2ceee0fbb452b750bd70ea5af960405160405180910390a2600260009054906101000a900473ffffffffffffffffffffffffffffffffffffffff1673ffffffffffffffffffffffffffffffffffffffff16634000aea08685856040518463ffffffff1660e01b81526004016109e4939291906119ea565b6020604051808303816000875af1158015610a03573d6000803e3d6000fd5b505050506040513d601f19601f82011682018060405250810190610a279190611a3d565b610a66576040517f08c379a0000000000000000000000000000000000000000000000000000000008152600401610a5d90611adc565b60405180910390fd5b949350505050565b610a7661102a565b6000602083610a859190611b2b565b14610ab157602082610a979190611b2b565b6020610aa39190611b5c565b82610aae91906116ed565b91505b81836020018181525050604051808452600081528281016020016040525082905092915050565b60178167ffffffffffffffff1611610b0f57610b098160058460ff16901b60ff161784610d4290919063ffffffff16565b50610c58565b60ff8167ffffffffffffffff1611610b6557610b3e601860058460ff16901b1784610d4290919063ffffffff16565b50610b5f8167ffffffffffffffff16600185610d629092919063ffffffff16565b50610c57565b61ffff8167ffffffffffffffff1611610bbc57610b95601960058460ff16901b1784610d4290919063ffffffff16565b50610bb68167ffffffffffffffff16600285610d629092919063ffffffff16565b50610c56565b63ffffffff8167ffffffffffffffff1611610c1557610bee601a60058460ff16901b1784610d4290919063ffffffff16565b50610c0f8167ffffffffffffffff16600485610d629092919063ffffffff16565b50610c55565b610c32601b60058460ff16901b1784610d4290919063ffffffff16565b50610c538167ffffffffffffffff16600885610d629092919063ffffffff16565b505b5b5b5b505050565b610c6561102a565b610c7783846000015151848551610d84565b905092915050565b610c9d60036005600660ff16901b1783610d4290919063ffffffff16565b50610cf282827fffffffffffffffffffffffffffffffffffffffffffffffffffffffffffffffff610cce9190611871565b604051602001610cde9190611b90565b604051602081830303815290604052610e73565b5050565b610d1460026005600660ff16901b1783610d4290919063ffffffff16565b50610d3e8282604051602001610d2a9190611b90565b604051602081830303815290604052610e73565b5050565b610d4a61102a565b610d5a8384600001515184610e98565b905092915050565b610d6a61102a565b610d7b848560000151518585610eef565b90509392505050565b610d8c61102a565b8251821115610d9a57600080fd5b84602001518285610dab91906116ed565b1115610de057610ddf856002610dd088602001518887610dcb91906116ed565b610f7d565b610dda9190611bab565b610f99565b5b600080865180518760208301019350808887011115610dff5787860182525b60208701925050505b60208410610e465780518252602082610e2191906116ed565b9150602081610e3091906116ed565b9050602084610e3f9190611b5c565b9350610e08565b60006001856020036101000a03905080198251168184511681811785525050508692505050949350505050565b610e808260028351610ad8565b610e938183610c5d90919063ffffffff16565b505050565b610ea061102a565b83602001518310610ec657610ec58460028660200151610ec09190611bab565b610f99565b5b8351805160208583010184815381861415610ee2576001820183525b5050508390509392505050565b610ef761102a565b84602001518483610f0891906116ed565b1115610f3057610f2f8560028685610f2091906116ed565b610f2a9190611bab565b610f99565b5b6000600183610100610f429190611d38565b610f4c9190611b5c565b90508551838682010185831982511617815281518588011115610f6f5784870182525b505085915050949350505050565b600081831115610f8f57829050610f93565b8190505b92915050565b600082600001519050610fac8383610a6e565b50610fb78382610c5d565b50505050565b6040518060a0016040528060008019168152602001600073ffffffffffffffffffffffffffffffffffffffff16815260200160007bffffffffffffffffffffffffffffffffffffffffffffffffffffffff191681526020016000815260200161102461102a565b81525090565b604051806040016040528060608152602001600081525090565b6000604051905090565b600080fd5b600080fd5b6000819050919050565b61106b81611058565b811461107657600080fd5b50565b60008135905061108881611062565b92915050565b6000602082840312156110a4576110a361104e565b5b60006110b284828501611079565b91505092915050565b600073ffffffffffffffffffffffffffffffffffffffff82169050919050565b60006110e6826110bb565b9050919050565b6110f6816110db565b82525050565b60008115159050919050565b611111816110fc565b82525050565b600060408201905061112c60008301856110ed565b6111396020830184611108565b9392505050565b60006020820190506111556000830184611108565b92915050565b600080fd5b600080fd5b6000601f19601f8301169050919050565b7f4e487b7100000000000000000000000000000000000000000000000000000000600052604160045260246000fd5b6111ae82611165565b810181811067ffffffffffffffff821117156111cd576111cc611176565b5b80604052505050565b60006111e0611044565b90506111ec82826111a5565b919050565b600067ffffffffffffffff82111561120c5761120b611176565b5b61121582611165565b9050602081019050919050565b82818337600083830152505050565b600061124461123f846111f1565b6111d6565b9050828152602081018484840111156112605761125f611160565b5b61126b848285611222565b509392505050565b600082601f8301126112885761128761115b565b5b8135611298848260208601611231565b91505092915050565b6000806000606084860312156112ba576112b961104e565b5b600084013567ffffffffffffffff8111156112d8576112d7611053565b5b6112e486828701611273565b935050602084013567ffffffffffffffff81111561130557611304611053565b5b61131186828701611273565b925050604084013567ffffffffffffffff81111561133257611331611053565b5b61133e86828701611273565b9150509250925092565b61135181611058565b82525050565b600060208201905061136c6000830184611348565b92915050565b61137b816110fc565b811461138657600080fd5b50565b60008135905061139881611372565b92915050565b600080604083850312156113b5576113b461104e565b5b60006113c385828601611079565b92505060206113d485828601611389565b9150509250929050565b600081905092915050565b7f68747470733a2f2f6c6667726f772d6861636b2d696e666c75656e6365722e6e60008201527f65746c6966792e6170702f2e6e65746c6966792f66756e6374696f6e732f617060208201527f702f3f74776565743d0000000000000000000000000000000000000000000000604082015250565b600061146b6049836113de565b9150611476826113e9565b604982019050919050565b600081519050919050565b60005b838110156114aa57808201518184015260208101905061148f565b838111156114b9576000848401525b50505050565b60006114ca82611481565b6114d481856113de565b93506114e481856020860161148c565b80840191505092915050565b7f266368616c6c656e67653d000000000000000000000000000000000000000000600082015250565b6000611526600b836113de565b9150611531826114f0565b600b82019050919050565b7f26757365726e616d653d00000000000000000000000000000000000000000000600082015250565b6000611572600a836113de565b915061157d8261153c565b600a82019050919050565b60006115938261145e565b915061159f82866114bf565b91506115aa82611519565b91506115b682856114bf565b91506115c182611565565b91506115cd82846114bf565b9150819050949350505050565b600082825260208201905092915050565b7f536f75726365206d75737420626520746865206f7261636c65206f662074686560008201527f2072657175657374000000000000000000000000000000000000000000000000602082015250565b60006116476028836115da565b9150611652826115eb565b604082019050919050565b600060208201905081810360008301526116768161163a565b9050919050565b60006060820190506116926000830186611348565b61169f60208301856110ed565b6116ac6040830184611108565b949350505050565b6000819050919050565b7f4e487b7100000000000000000000000000000000000000000000000000000000600052601160045260246000fd5b60006116f8826116b4565b9150611703836116b4565b9250827fffffffffffffffffffffffffffffffffffffffffffffffffffffffffffffffff03821115611738576117376116be565b5b828201905092915050565b61174c816116b4565b82525050565b60007fffffffff0000000000000000000000000000000000000000000000000000000082169050919050565b61178781611752565b82525050565b600081519050919050565b600082825260208201905092915050565b60006117b48261178d565b6117be8185611798565b93506117ce81856020860161148c565b6117d781611165565b840191505092915050565b6000610100820190506117f8600083018b6110ed565b611805602083018a611743565b6118126040830189611348565b61181f60608301886110ed565b61182c608083018761177e565b61183960a0830186611743565b61184660c0830185611743565b81810360e083015261185881846117a9565b90509998505050505050505050565b6000819050919050565b600061187c82611867565b915061188783611867565b9250827f8000000000000000000000000000000000000000000000000000000000000000018212600084121516156118c2576118c16116be565b5b827f7fffffffffffffffffffffffffffffffffffffffffffffffffffffffffffffff0182136000841216156118fa576118f96116be565b5b828203905092915050565b6000819050919050565b600061192a611925611920846110bb565b611905565b6110bb565b9050919050565b600061193c8261190f565b9050919050565b600061194e82611931565b9050919050565b60008160601b9050919050565b600061196d82611955565b9050919050565b600061197f82611962565b9050919050565b61199761199282611943565b611974565b82525050565b6000819050919050565b6119b86119b3826116b4565b61199d565b82525050565b60006119ca8285611986565b6014820191506119da82846119a7565b6020820191508190509392505050565b60006060820190506119ff60008301866110ed565b611a0c6020830185611743565b8181036040830152611a1e81846117a9565b9050949350505050565b600081519050611a3781611372565b92915050565b600060208284031215611a5357611a5261104e565b5b6000611a6184828501611a28565b91505092915050565b7f756e61626c6520746f207472616e73666572416e6443616c6c20746f206f726160008201527f636c650000000000000000000000000000000000000000000000000000000000602082015250565b6000611ac66023836115da565b9150611ad182611a6a565b604082019050919050565b60006020820190508181036000830152611af581611ab9565b9050919050565b7f4e487b7100000000000000000000000000000000000000000000000000000000600052601260045260246000fd5b6000611b36826116b4565b9150611b41836116b4565b925082611b5157611b50611afc565b5b828206905092915050565b6000611b67826116b4565b9150611b72836116b4565b925082821015611b8557611b846116be565b5b828203905092915050565b6000602082019050611ba56000830184611743565b92915050565b6000611bb6826116b4565b9150611bc1836116b4565b9250817fffffffffffffffffffffffffffffffffffffffffffffffffffffffffffffffff0483118215151615611bfa57611bf96116be565b5b828202905092915050565b60008160011c9050919050565b6000808291508390505b6001851115611c5c57808604811115611c3857611c376116be565b5b6001851615611c475780820291505b8081029050611c5585611c05565b9450611c1c565b94509492505050565b600082611c755760019050611d31565b81611c835760009050611d31565b8160018114611c995760028114611ca357611cd2565b6001915050611d31565b60ff841115611cb557611cb46116be565b5b8360020a915084821115611ccc57611ccb6116be565b5b50611d31565b5060208310610133831016604e8410600b8410161715611d075782820a905083811115611d0257611d016116be565b5b611d31565b611d148484846001611c12565b92509050818404811115611d2b57611d2a6116be565b5b81810290505b9392505050565b6000611d43826116b4565b9150611d4e836116b4565b9250611d7b7fffffffffffffffffffffffffffffffffffffffffffffffffffffffffffffffff8484611c65565b90509291505056fea26469706673582212208440b5430241289503bb13198d67a2d2cc3dec9bcf9a7c679fa0686f2156b97b64736f6c634300080a0033",
  "linkReferences": {},
  "deployedLinkReferences": {}
}