{
  "_format": "hh-sol-artifact-1",
  "contractName": "TwitterVerifier",
  "sourceName": "contracts/TwitterVerifier.sol",
  "abi": [
    {
      "inputs": [
        {
          "internalType": "address",
          "name": "_oracle",
          "type": "address"
        },
        {
          "internalType": "bytes32",
          "name": "_jobId",
          "type": "bytes32"
        },
        {
          "internalType": "uint256",
          "name": "_fee",
          "type": "uint256"
        },
        {
          "internalType": "address",
          "name": "_link",
          "type": "address"
        }
      ],
      "stateMutability": "nonpayable",
      "type": "constructor"
    },
    {
      "anonymous": false,
      "inputs": [
        {
          "indexed": true,
          "internalType": "bytes32",
          "name": "id",
          "type": "bytes32"
        }
      ],
      "name": "ChainlinkCancelled",
      "type": "event"
    },
    {
      "anonymous": false,
      "inputs": [
        {
          "indexed": true,
          "internalType": "bytes32",
          "name": "id",
          "type": "bytes32"
        }
      ],
      "name": "ChainlinkFulfilled",
      "type": "event"
    },
    {
      "anonymous": false,
      "inputs": [
        {
          "indexed": true,
          "internalType": "bytes32",
          "name": "id",
          "type": "bytes32"
        }
      ],
      "name": "ChainlinkRequested",
      "type": "event"
    },
    {
      "anonymous": false,
      "inputs": [
        {
          "indexed": false,
          "internalType": "bytes32",
          "name": "requestId",
          "type": "bytes32"
        },
        {
          "indexed": true,
          "internalType": "address",
          "name": "accountContract",
          "type": "address"
        },
        {
          "indexed": false,
          "internalType": "bool",
          "name": "isVerified",
          "type": "bool"
        }
      ],
      "name": "VerificationCompleted",
      "type": "event"
    },
    {
      "anonymous": false,
      "inputs": [
        {
          "indexed": false,
          "internalType": "bytes32",
          "name": "requestId",
          "type": "bytes32"
        }
      ],
      "name": "VerificationStarted",
      "type": "event"
    },
    {
      "inputs": [
        {
          "internalType": "bytes32",
          "name": "_requestId",
          "type": "bytes32"
        },
        {
          "internalType": "int256",
          "name": "retValue",
          "type": "int256"
        }
      ],
      "name": "fulfill",
      "outputs": [],
      "stateMutability": "nonpayable",
      "type": "function"
    },
    {
      "inputs": [
        {
          "internalType": "bytes32",
          "name": "requestId",
          "type": "bytes32"
        }
      ],
      "name": "getResult",
      "outputs": [
        {
          "internalType": "bool",
          "name": "",
          "type": "bool"
        }
      ],
      "stateMutability": "view",
      "type": "function"
    },
    {
      "inputs": [
        {
          "internalType": "bytes32",
          "name": "",
          "type": "bytes32"
        }
      ],
      "name": "verifiedProfiles",
      "outputs": [
        {
          "internalType": "address",
          "name": "accountContract",
          "type": "address"
        },
        {
          "internalType": "bool",
          "name": "isVerified",
          "type": "bool"
        }
      ],
      "stateMutability": "view",
      "type": "function"
    },
    {
      "inputs": [
        {
          "internalType": "string",
          "name": "username",
          "type": "string"
        },
        {
          "internalType": "string",
          "name": "tweetId",
          "type": "string"
        },
        {
          "internalType": "string",
          "name": "challenge",
          "type": "string"
        }
      ],
      "name": "verifyTweet",
      "outputs": [
        {
          "internalType": "bytes32",
          "name": "requestId",
          "type": "bytes32"
        }
      ],
      "stateMutability": "nonpayable",
      "type": "function"
    }
  ],
  "bytecode": "0x608060405260016004553480156200001657600080fd5b5060405162001e0238038062001e0283398181016040528101906200003c9190620002af565b600073ffffffffffffffffffffffffffffffffffffffff168173ffffffffffffffffffffffffffffffffffffffff161415620000885762000082620000f360201b60201c565b6200009a565b62000099816200018b60201b60201c565b5b83600660006101000a81548173ffffffffffffffffffffffffffffffffffffffff021916908373ffffffffffffffffffffffffffffffffffffffff16021790555082600781905550816008819055505050505062000353565b6200018973c89bd4e1632d3a43cb03aaad5262cbe4038bc57173ffffffffffffffffffffffffffffffffffffffff166338cc48316040518163ffffffff1660e01b8152600401602060405180830381865afa15801562000157573d6000803e3d6000fd5b505050506040513d601f19601f820116820180604052508101906200017d919062000321565b6200018b60201b60201c565b565b80600260006101000a81548173ffffffffffffffffffffffffffffffffffffffff021916908373ffffffffffffffffffffffffffffffffffffffff16021790555050565b600080fd5b600073ffffffffffffffffffffffffffffffffffffffff82169050919050565b60006200020182620001d4565b9050919050565b6200021381620001f4565b81146200021f57600080fd5b50565b600081519050620002338162000208565b92915050565b6000819050919050565b6200024e8162000239565b81146200025a57600080fd5b50565b6000815190506200026e8162000243565b92915050565b6000819050919050565b620002898162000274565b81146200029557600080fd5b50565b600081519050620002a9816200027e565b92915050565b60008060008060808587031215620002cc57620002cb620001cf565b5b6000620002dc8782880162000222565b9450506020620002ef878288016200025d565b9350506040620003028782880162000298565b9250506060620003158782880162000222565b91505092959194509250565b6000602082840312156200033a5762000339620001cf565b5b60006200034a8482850162000222565b91505092915050565b611a9f80620003636000396000f3fe608060405234801561001057600080fd5b506004361061004c5760003560e01c8063ab16e3b614610051578063add4c78414610082578063bda71d04146100b2578063f12afb74146100ce575b600080fd5b61006b60048036038101906100669190610e1a565b6100fe565b604051610079929190610ea3565b60405180910390f35b61009c60048036038101906100979190610e1a565b61014f565b6040516100a99190610ecc565b60405180910390f35b6100cc60048036038101906100c79190610f1d565b61017c565b005b6100e860048036038101906100e391906110a3565b610343565b6040516100f59190611159565b60405180910390f35b60096020528060005260406000206000915090508060000160009054906101000a900473ffffffffffffffffffffffffffffffffffffffff16908060000160149054906101000a900460ff16905082565b60006009600083815260200190815260200160002060000160149054906101000a900460ff169050919050565b816005600082815260200190815260200160002060009054906101000a900473ffffffffffffffffffffffffffffffffffffffff1673ffffffffffffffffffffffffffffffffffffffff163373ffffffffffffffffffffffffffffffffffffffff161461021e576040517f08c379a0000000000000000000000000000000000000000000000000000000008152600401610215906111f7565b60405180910390fd5b6005600082815260200190815260200160002060006101000a81549073ffffffffffffffffffffffffffffffffffffffff0219169055807f7cc135e0cebb02c3480ae5d74d377283180a2601f8f644edf7987b009316c63a60405160405180910390a26000600183149050806009600086815260200190815260200160002060000160146101000a81548160ff0219169083151502179055506009600085815260200190815260200160002060000160009054906101000a900473ffffffffffffffffffffffffffffffffffffffff1673ffffffffffffffffffffffffffffffffffffffff167f97c9b29a58b5d7da659547427f1268ebbd60e66aa1d11950e653ef16b09a10f18583604051610335929190611217565b60405180910390a250505050565b60008061035a6007543063bda71d0460e01b610548565b90506000848487604051602001610373939291906113ea565b60405160208183030381529060405290506103ce6040518060400160405280600381526020017f676574000000000000000000000000000000000000000000000000000000000081525082846105799092919063ffffffff16565b61044d6040518060400160405280600481526020017f70617468000000000000000000000000000000000000000000000000000000008152506040518060400160405280600481526020017f6461746100000000000000000000000000000000000000000000000000000000815250846105799092919063ffffffff16565b600061047e600660009054906101000a900473ffffffffffffffffffffffffffffffffffffffff16846008546105ac565b9050336009600083815260200190815260200160002060000160006101000a81548173ffffffffffffffffffffffffffffffffffffffff021916908373ffffffffffffffffffffffffffffffffffffffff16021790555060006009600083815260200190815260200160002060000160146101000a81548160ff0219169083151502179055507fa1af31e33181b52303c7c4e07a11f72a0d4d1382d0f53b167568720d98ae2cf1816040516105339190611159565b60405180910390a18093505050509392505050565b610550610d49565b610558610d49565b61056f85858584610678909392919063ffffffff16565b9150509392505050565b61059082846080015161072890919063ffffffff16565b6105a781846080015161072890919063ffffffff16565b505050565b60008060045490506001816105c19190611475565b6004819055506000634042994660e01b60008087600001513089604001518760018c608001516000015160405160240161060298979695949392919061156a565b604051602081830303815290604052907bffffffffffffffffffffffffffffffffffffffffffffffffffffffff19166020820180517bffffffffffffffffffffffffffffffffffffffffffffffffffffffff8381831617835250505050905061066d8683868461074d565b925050509392505050565b610680610d49565b61069085608001516101006108e2565b508385600001818152505082856020019073ffffffffffffffffffffffffffffffffffffffff16908173ffffffffffffffffffffffffffffffffffffffff16815250508185604001907bffffffffffffffffffffffffffffffffffffffffffffffffffffffff191690817bffffffffffffffffffffffffffffffffffffffffffffffffffffffff191681525050849050949350505050565b610735826003835161094c565b6107488183610ad190919063ffffffff16565b505050565b600030846040516020016107629291906116a8565b604051602081830303815290604052805190602001209050846005600083815260200190815260200160002060006101000a81548173ffffffffffffffffffffffffffffffffffffffff021916908373ffffffffffffffffffffffffffffffffffffffff160217905550807fb5e6e01e79f91267dc17b4e6314d5d4d03593d2ceee0fbb452b750bd70ea5af960405160405180910390a2600260009054906101000a900473ffffffffffffffffffffffffffffffffffffffff1673ffffffffffffffffffffffffffffffffffffffff16634000aea08685856040518463ffffffff1660e01b8152600401610858939291906116d4565b6020604051808303816000875af1158015610877573d6000803e3d6000fd5b505050506040513d601f19601f8201168201806040525081019061089b919061173e565b6108da576040517f08c379a00000000000000000000000000000000000000000000000000000000081526004016108d1906117dd565b60405180910390fd5b949350505050565b6108ea610db6565b60006020836108f9919061182c565b146109255760208261090b919061182c565b6020610917919061185d565b826109229190611475565b91505b81836020018181525050604051808452600081528281016020016040525082905092915050565b60178167ffffffffffffffff16116109835761097d8160058460ff16901b60ff161784610af390919063ffffffff16565b50610acc565b60ff8167ffffffffffffffff16116109d9576109b2601860058460ff16901b1784610af390919063ffffffff16565b506109d38167ffffffffffffffff16600185610b139092919063ffffffff16565b50610acb565b61ffff8167ffffffffffffffff1611610a3057610a09601960058460ff16901b1784610af390919063ffffffff16565b50610a2a8167ffffffffffffffff16600285610b139092919063ffffffff16565b50610aca565b63ffffffff8167ffffffffffffffff1611610a8957610a62601a60058460ff16901b1784610af390919063ffffffff16565b50610a838167ffffffffffffffff16600485610b139092919063ffffffff16565b50610ac9565b610aa6601b60058460ff16901b1784610af390919063ffffffff16565b50610ac78167ffffffffffffffff16600885610b139092919063ffffffff16565b505b5b5b5b505050565b610ad9610db6565b610aeb83846000015151848551610b35565b905092915050565b610afb610db6565b610b0b8384600001515184610c24565b905092915050565b610b1b610db6565b610b2c848560000151518585610c7b565b90509392505050565b610b3d610db6565b8251821115610b4b57600080fd5b84602001518285610b5c9190611475565b1115610b9157610b90856002610b8188602001518887610b7c9190611475565b610d09565b610b8b9190611891565b610d25565b5b600080865180518760208301019350808887011115610bb05787860182525b60208701925050505b60208410610bf75780518252602082610bd29190611475565b9150602081610be19190611475565b9050602084610bf0919061185d565b9350610bb9565b60006001856020036101000a03905080198251168184511681811785525050508692505050949350505050565b610c2c610db6565b83602001518310610c5257610c518460028660200151610c4c9190611891565b610d25565b5b8351805160208583010184815381861415610c6e576001820183525b5050508390509392505050565b610c83610db6565b84602001518483610c949190611475565b1115610cbc57610cbb8560028685610cac9190611475565b610cb69190611891565b610d25565b5b6000600183610100610cce9190611a1e565b610cd8919061185d565b90508551838682010185831982511617815281518588011115610cfb5784870182525b505085915050949350505050565b600081831115610d1b57829050610d1f565b8190505b92915050565b600082600001519050610d3883836108e2565b50610d438382610ad1565b50505050565b6040518060a0016040528060008019168152602001600073ffffffffffffffffffffffffffffffffffffffff16815260200160007bffffffffffffffffffffffffffffffffffffffffffffffffffffffff1916815260200160008152602001610db0610db6565b81525090565b604051806040016040528060608152602001600081525090565b6000604051905090565b600080fd5b600080fd5b6000819050919050565b610df781610de4565b8114610e0257600080fd5b50565b600081359050610e1481610dee565b92915050565b600060208284031215610e3057610e2f610dda565b5b6000610e3e84828501610e05565b91505092915050565b600073ffffffffffffffffffffffffffffffffffffffff82169050919050565b6000610e7282610e47565b9050919050565b610e8281610e67565b82525050565b60008115159050919050565b610e9d81610e88565b82525050565b6000604082019050610eb86000830185610e79565b610ec56020830184610e94565b9392505050565b6000602082019050610ee16000830184610e94565b92915050565b6000819050919050565b610efa81610ee7565b8114610f0557600080fd5b50565b600081359050610f1781610ef1565b92915050565b60008060408385031215610f3457610f33610dda565b5b6000610f4285828601610e05565b9250506020610f5385828601610f08565b9150509250929050565b600080fd5b600080fd5b6000601f19601f8301169050919050565b7f4e487b7100000000000000000000000000000000000000000000000000000000600052604160045260246000fd5b610fb082610f67565b810181811067ffffffffffffffff82111715610fcf57610fce610f78565b5b80604052505050565b6000610fe2610dd0565b9050610fee8282610fa7565b919050565b600067ffffffffffffffff82111561100e5761100d610f78565b5b61101782610f67565b9050602081019050919050565b82818337600083830152505050565b600061104661104184610ff3565b610fd8565b90508281526020810184848401111561106257611061610f62565b5b61106d848285611024565b509392505050565b600082601f83011261108a57611089610f5d565b5b813561109a848260208601611033565b91505092915050565b6000806000606084860312156110bc576110bb610dda565b5b600084013567ffffffffffffffff8111156110da576110d9610ddf565b5b6110e686828701611075565b935050602084013567ffffffffffffffff81111561110757611106610ddf565b5b61111386828701611075565b925050604084013567ffffffffffffffff81111561113457611133610ddf565b5b61114086828701611075565b9150509250925092565b61115381610de4565b82525050565b600060208201905061116e600083018461114a565b92915050565b600082825260208201905092915050565b7f536f75726365206d75737420626520746865206f7261636c65206f662074686560008201527f2072657175657374000000000000000000000000000000000000000000000000602082015250565b60006111e1602883611174565b91506111ec82611185565b604082019050919050565b60006020820190508181036000830152611210816111d4565b9050919050565b600060408201905061122c600083018561114a565b6112396020830184610e94565b9392505050565b600081905092915050565b7f68747470733a2f2f6c6667726f772d6861636b2d696e666c75656e6365722e6e60008201527f65746c6966792e6170702f2e6e65746c6966792f66756e6374696f6e732f617060208201527f702f3f74776565743d0000000000000000000000000000000000000000000000604082015250565b60006112cd604983611240565b91506112d88261124b565b604982019050919050565b600081519050919050565b60005b8381101561130c5780820151818401526020810190506112f1565b8381111561131b576000848401525b50505050565b600061132c826112e3565b6113368185611240565b93506113468185602086016112ee565b80840191505092915050565b7f266368616c6c656e67653d000000000000000000000000000000000000000000600082015250565b6000611388600b83611240565b915061139382611352565b600b82019050919050565b7f26757365726e616d653d00000000000000000000000000000000000000000000600082015250565b60006113d4600a83611240565b91506113df8261139e565b600a82019050919050565b60006113f5826112c0565b91506114018286611321565b915061140c8261137b565b91506114188285611321565b9150611423826113c7565b915061142f8284611321565b9150819050949350505050565b6000819050919050565b7f4e487b7100000000000000000000000000000000000000000000000000000000600052601160045260246000fd5b60006114808261143c565b915061148b8361143c565b9250827fffffffffffffffffffffffffffffffffffffffffffffffffffffffffffffffff038211156114c0576114bf611446565b5b828201905092915050565b6114d48161143c565b82525050565b60007fffffffff0000000000000000000000000000000000000000000000000000000082169050919050565b61150f816114da565b82525050565b600081519050919050565b600082825260208201905092915050565b600061153c82611515565b6115468185611520565b93506115568185602086016112ee565b61155f81610f67565b840191505092915050565b600061010082019050611580600083018b610e79565b61158d602083018a6114cb565b61159a604083018961114a565b6115a76060830188610e79565b6115b46080830187611506565b6115c160a08301866114cb565b6115ce60c08301856114cb565b81810360e08301526115e08184611531565b90509998505050505050505050565b6000819050919050565b600061161461160f61160a84610e47565b6115ef565b610e47565b9050919050565b6000611626826115f9565b9050919050565b60006116388261161b565b9050919050565b60008160601b9050919050565b60006116578261163f565b9050919050565b60006116698261164c565b9050919050565b61168161167c8261162d565b61165e565b82525050565b6000819050919050565b6116a261169d8261143c565b611687565b82525050565b60006116b48285611670565b6014820191506116c48284611691565b6020820191508190509392505050565b60006060820190506116e96000830186610e79565b6116f660208301856114cb565b81810360408301526117088184611531565b9050949350505050565b61171b81610e88565b811461172657600080fd5b50565b60008151905061173881611712565b92915050565b60006020828403121561175457611753610dda565b5b600061176284828501611729565b91505092915050565b7f756e61626c6520746f207472616e73666572416e6443616c6c20746f206f726160008201527f636c650000000000000000000000000000000000000000000000000000000000602082015250565b60006117c7602383611174565b91506117d28261176b565b604082019050919050565b600060208201905081810360008301526117f6816117ba565b9050919050565b7f4e487b7100000000000000000000000000000000000000000000000000000000600052601260045260246000fd5b60006118378261143c565b91506118428361143c565b925082611852576118516117fd565b5b828206905092915050565b60006118688261143c565b91506118738361143c565b92508282101561188657611885611446565b5b828203905092915050565b600061189c8261143c565b91506118a78361143c565b9250817fffffffffffffffffffffffffffffffffffffffffffffffffffffffffffffffff04831182151516156118e0576118df611446565b5b828202905092915050565b60008160011c9050919050565b6000808291508390505b60018511156119425780860481111561191e5761191d611446565b5b600185161561192d5780820291505b808102905061193b856118eb565b9450611902565b94509492505050565b60008261195b5760019050611a17565b816119695760009050611a17565b816001811461197f5760028114611989576119b8565b6001915050611a17565b60ff84111561199b5761199a611446565b5b8360020a9150848211156119b2576119b1611446565b5b50611a17565b5060208310610133831016604e8410600b84101617156119ed5782820a9050838111156119e8576119e7611446565b5b611a17565b6119fa84848460016118f8565b92509050818404811115611a1157611a10611446565b5b81810290505b9392505050565b6000611a298261143c565b9150611a348361143c565b9250611a617fffffffffffffffffffffffffffffffffffffffffffffffffffffffffffffffff848461194b565b90509291505056fea26469706673582212200775235e6762cb8c336e6e0b4f4d33525dfee481ddd0228eacbea5dceb56e5ba64736f6c634300080a0033",
  "linkReferences": {},
  "deployedLinkReferences": {}
}